:10000000401E002035230000196100000923000074
:10001000092300000923000009230000000000005C
:10002000000000000000000000000000A91B00000C
:100030000923000000000000451B00000923000008
:10004000651C0000651C0000651C0000651C0000AC
:10005000651C0000651C0000651C0000651C00009C
:10006000651C0000651C0000651C0000651C00008C
:10007000651C0000651C0000651C0000651C00007C
:10008000651C0000651C0000651C0000651C00006C
:10009000651C0000651C0000651C0000651C00005C
:1000A000651C0000651C0000651C0000651C00004C
:1000B000651C0000651C0000651C0000651C00003C
:1000C000651C0000651C0000651C0000651C00002C
:0C00D000651C0000651C0000651C0000A1
:1000DC0053B94AB9002908BF00281CBF4FF0FF31A3
:1000EC004FF0FF3000F00CB8ADF1080C6DE904CE08
:1000FC0000F008F8DDF804E0DDE9022304B07047F5
:10010C00704700BF2DE9F04786468C460846089E8E
:10011C00154674461946002B40F0C2808542B2FA4F
:10012C0082F245D94AB1C2F1200300FA02FC2EFA40
:10013C0003F3954043EA0C0C94404FEA154EA8B2D9
:10014C00BCFBFEF8230C0EFB18CC08FB00F943EAB1
:10015C000C43994528D9EB1808F1FF3704D299457F
:10016C0002D9A8F102072B44A3EB0903A4B2B3FBF9
:10017C00FEFC0EFB1C330CFB00F044EA0344A042D3
:10018C0014D92C190CF1FF3304D2A04202D9ACF1D2
:10019C0002032C44241A43EA07401EB1D440002326
:1001AC0034607360BDE8F0874746DDE76346F1E7EE
:1001BC0092BB431B01214FEA154EAFB2B3FBFEFCC1
:1001CC00200C0EFB1C330CFB07F840EA034398454C
:1001DC0062D9EB180CF1FF3004D2984502D9ACF17E
:1001EC0002002B44A3EB0803A4B2B3FBFEFC0EFBF2
:1001FC001C330CFB07F744EA0344A7424ED92C19D5
:10020C000CF1FF3304D2A74202D9ACF102032C4407
:10021C00E41B43EA0040C0E7C2F1200320FA03F1DB
:10022C00954090402EFA03F303434FEA154EAFB2BC
:10023C00B1FBFEFC0EFB1C10190C0CFB07F841EA81
:10024C000041884504FA02F422D969180CF1FF30F8
:10025C0004D2884502D9ACF102002944A1EB080173
:10026C009BB2B1FBFEFC0EFB1C110CFB07F743EA27
:10027C0001439F420ED9EB180CF1FF3104D29F427F
:10028C0002D9ACF102012B44DB1B41EA004192E79D
:10029C006046E3E76146F7E76046A3E76346B7E7E6
:1002AC00834206D916B9002108467BE7C6E900E06F
:1002BC00F9E7B3FA83F78FB9834201D3724508D8B3
:1002CC00BEEB020460EB030301209C461EB9002127
:1002DC0068E73846FAE7C6E9004CF8E7C7F1200CA6
:1002EC00BB4022FA0CF41C432EFA0CF120FA0CF34E
:1002FC00B84001434FEA14490EFA07F5B3FBF9F87D
:10030C001FFA84FE09FB18300B0C08FB0EFA43EAAB
:10031C0000439A4502FA07F240D9E31808F1FF307E
:10032C0004D29A4502D9A8F102002344A3EB0A0394
:10033C0089B2B3FBF9F809FB183308FB0EFE41EA4E
:10034C0003418E452CD9611808F1FF3304D28E4538
:10035C0002D9A8F10203214443EA0040A0FB029811
:10036C00A1EB0E014145CE46434602D306D14D4585
:10037C0004D2B9EB020E68EB04030138002EA6D0B0
:10038C00B5EB0E0261EB030101FA0CFC22FA07F348
:10039C004CEA0303F940C6E9003198E74046C5E74B
:1003AC004346D9E7034613F8012B002AFBD1181A50
:1003BC000138704710B50C4805F056FA0B4802216D
:1003CC0005F052FA0A4C204606F046F828B9216886
:1003DC00084805F049FA002010BD07486FF0850267
:1003EC00002105F041FAF6E71C6B0000296B0000B8
:1003FC0004680000396B00005D6B00002DE9F04FC4
:10040C0091B08407009302F004030293C2F3C20379
:10041C0003F10103DDF86890039205460E4605933F
:10042C0040F0BA81041D30B1072909D86FF01B00C8
:10043C0011B0BDE8F08F01F00706341DC6F10806B7
:10044C00009B4FF00008591E4FF0040A4FF0FF3389
:10045C000193CDF810804746C34653460DB1009A20
:10046C0022600598002800F3E8809848009A8242A0
:10047C0003D397488242C0F0E080039AA4EB050EA8
:10048C0092074FEA9E0000F103810F2F00F2B1801A
:10049C00002D00F0058107F140020DEB020C019AD2
:1004AC000CF8200C0CF8102C049801300490E7E0A8
:1004BC007A285DD84B280ED8472859D829282DD80A
:1004CC00252852D054D820287AD02338D0F1000BCC
:1004DC004BEB000B74E04C382E2849D8DFE800F0C9
:1004EC007048484848484848484848484B48484855
:1004FC00484848484859484B4B595959704B6D48D6
:10050C007048184B184848827F4B48484B487F002E
:10051C0000204FF0000B4FF0040A38E02A38C0B22C
:10052C00012202FA00F010EA0E0F49D110F0625CC1
:10053C002FD110EA020B43D06046013C5444B4FB6B
:10054C00FAF40AFB04F4002D61D0A3EB050CA444CF
:10055C006645FFF46BAF002868D1042B47D159F8DE
:10056C00043B2360043404232AE0019A013A0192EB
:10057C004FF0000B24E011F8010C6C2834D111F869
:10058C00023C00206C2B8346C5D14FF0080A534621
:10059C00D3E709F1070929F007090734F9E802AB99
:1005AC0024F0070435B106982044B0423FF63EAF24
:1005BC00C4E900AB08344FF0000B4FF0080A534667
:1005CC0011F8010F002878D0BBF1000F7FF470AF49
:1005DC002528F5D1019B013301934FF0010B4FF00E
:1005EC00040AECE7584694E700208346A5E7082B5D
:1005FC0002D06FF015001BE709F1070929F0070974
:10060C00F9E80223C4E9002308340823D8E768B9C1
:10061C00042B02D109F10409A4E7082BE9D109F153
:10062C00070929F0070909F10809EDE7059A013ACC
:10063C00059259F8042B009210E7039A900720D5E5
:10064C00A4EB050E4FEA9E004FF0010CBEF5007FA7
:10065C00CFD20F2FCDD8F5B107F140020DEB020E22
:10066C00C0B2019A0EF8200C0EF8102CBCF1000F41
:10067C003FF41AAF60F07F000EF8200C08F101086F
:10068C000137C5F10802043406924FF6DA7E97E77B
:10069C004FF0000CDAE7BCF1000F01D00136EFE7A8
:1006AC00029802360028EBD10098CDE90631FFF70D
:1006BC0079FEDDE906310644E2E7631BB3F5806F92
:1006CC0097D23DB9A6F10804E018B1E69C6700008A
:1006DC0068750000029A28609B082B709DF81030FA
:1006EC00C2B1EB7085F80280B8F1000F05D008A8F4
:1006FC000022C5F1010C97420ED1C5F101030DF199
:10070C0020094FF0000A01930DF1300B574512D11F
:10071C00601B8DE66B70E5E710F8013B190608D5F8
:10072C0004EB0C0E764503F07F03FFF47FAE04F868
:10073C00013B0132DFE7B8F1000F03D099F900203B
:10074C00002A17DB029BD3B11AF80B2004F8012BFB
:10075C000022019B981820448642FFF467AE99F85A
:10076C00000004F8010B00990392204605F0E7FF06
:10077C00039A14440AF1010A09F10109C6E799F830
:10078C00002055F822300093029B45F82230009847
:10079C00FFF708FE421CDCE76FF00D0048E600BFD7
:1007AC002DE9F04F95B000AF90F802B0BB61BB6F74
:1007BC007A62C3F3C00304463B618A4641B945786B
:1007CC0000780BEB80002044554517D8A0EB040AA9
:1007DC00E3787B61BBF1000F02D0BB6FD80716D456
:1007EC007B6953BB7B6A1BB1BA695146204698475B
:1007FC00554628465437BD46BDE8F08F461C30465A
:10080C00FFF7D0FD013030440AF1010ADCE7237810
:10081C003B629B00FB603B6A6268FA6104EB8309F4
:10082C007B6A002B40F0FE805546C84609EB0B0A4C
:10083C000026D04551D1D94413E0BB6F9907D1D5CF
:10084C0023783B6299469B00FB606368FB617B6A83
:10085C0004EB8909002B7AD15546BBF1000F4FD11F
:10086C005E46BB6F13F0050F7B6909EB430ABB6F48
:10087C0003F002030CBF4FF0020B4FF0010B7B6235
:10088C00D145B6D019F8021B19F8013C54F8238055
:10089C00AA4B984502D3AA4B984538D33B69002BF9
:1008AC0042D0F86904F0BBFF00283DD0E8468AB07E
:1008BC006A46A44B5361FB69C2E906314FF40073DD
:1008CC001384A14B42F8103FA04800234FF412515F
:1008DC0000F002FD023DC546D2E718F8013B54F882
:1008EC002300FFF75FFDFB6F01303BB1D7F8803081
:1008FC009E423EBFFB6F23F816000136054498E775
:10090C00BB6F13F004061CBF7E6AD944A9E73B6990
:10091C0023B1F86904F083FF0028C7D1BB6FDA0755
:10092C0005D4A5EB0B05ABE77B6A002BA8D04046A2
:10093C00FFF738FDFB6F43B1D7F880309E423FBFC5
:10094C00FA6F431C22F816300136054498E7BBF1C8
:10095C00000F6DD0BB6F13F004066CD0D846002688
:10096C0007F140005A46494605F0E9FE7B695B00F9
:10097C007B607B69D94409EB4303BB60BB6F03F01D
:10098C0002033B60BB684B4557D1B96F6378B86FB6
:10099C00890706EB030254BF4FEA58010021C50733
:1009AC00D2B200F19A8010F0040F14BF4046002020
:1009BC00FB616270A070E170BA69F9687B6A2046CD
:1009CC009847051EFFF615AF3B6A2370FB696370F1
:1009DC007B69E3704146BA697B6A84F802B007F11F
:1009EC0040009847B0F10008C0F2A480FB68BA69D7
:1009FC00AAEB0B01C91A7B684846C91A7B6A98474F
:100A0C000028C0F29980A84408EB00054FF0000BB9
:100A1C0007F1300AB34562D30021BA697B6A0846F4
:100A2C009847E6E65E464FF0000807F1300099E77C
:100A3C005E46D8469AE7B04698E719F8021B3F4B3A
:100A4C0019F8015C54F82500984202D33C4B9842AB
:100A5C001DD33B6923B1F86904F0E1FE002891D164
:100A6C003B68FBB908F1280307F1280208F10100E3
:100A7C0003EB020C07F1500353FA80F008F1020863
:100A8C000CF8101C5FFA88F800F8105C7AE73B69E8
:100A9C002BB1F86904F0C3FE00287FF473AFBB6F71
:100AAC00DB0709D506F1280307F12802711C9E18F3
:100ABC0006F8205CCEB265E7BB6F58077FF562AFD6
:100ACC0008F1280307F1280208F1010103EB0208E1
:100ADC0008F8105C5FFA81F854E7002068E71BF80F
:100AEC000A3087F82F3054F82390FB6FFBB133F8A2
:100AFC001B80BA697B6A012107F12F0098470028F7
:100B0C001ADB0544B8F1000F06D14846FFF74AFC42
:100B1C0000F101081FFA88F8BA697B6A4146484619
:100B2C009847002808DB05440BF1010B72E7D7F856
:100B3C007C80DEE745465CE605465AE69C6700008D
:100B4C00687500007F6B00000400000168690000FC
:100B5C0080B505460E461746984604F053F90346F1
:100B6C0005F00CFEDFF81890044649F800304246B8
:100B7C0030463946A84754F8090001F055FC00BF2F
:100B8C00080000002DE9F047058B04462807904625
:100B9C0011D4022905F0070540F0CD80204604F061
:100BAC00D9FE78B10138218B042811D8DFE800F088
:100BBC00C3106D85950001290CBF45F0100545F05B
:100BCC002005258388F31188BFF36F8FBDE8F0876C
:100BDC0001F0070AAA4500F0A6800027B9463E4658
:100BEC00A368002B00F0BD8041F00801218388F33D
:100BFC001188BFF36F8FA168002900F0BB800D68CE
:100C0C00002900F0B780D1F80480334652462046C4
:100C1C00C047002D76D02B6829461D46F0E701F021
:100C2C0007035A1F012A1BD8002221F00701062BAB
:100C3C00276889B2C4E9002209D13B4603E0628BE4
:100C4C00013262831B68002BF9D141F00201218330
:100C5C00204604F07FFE00287BD041F0200177E095
:100C6C00042B0AD121F0070189B22183204604F01C
:100C7C0071FE10B141F020012183218B01F0070A94
:100C8C00AA4550D00027B946AAE7236921F00701ED
:100C9C0041F00601062DD3F8009021832DD1B9F136
:100CAC00000F40D041F00801218388F31188BFF375
:100CBC006F8F3A492046C84729E021F00701236984
:100CCC0041F0040189B2042DD3F804902183E6D0BD
:100CDC0000273E464FF0040A82E721F00701236902
:100CEC0041F0050189B2052DD3F808902183D6D0A7
:100CFC0000273E464FF0050A72E700273E464FF0AC
:100D0C00060A6DE72B4687E7B9F1000FD1D14FF0FA
:100D1C002003EFF3118883F31288BFF36F8F238BBB
:100D2C0023F008032383258BEA062ED525F0100328
:100D3C00238305F007056669218B002EBFF66FAF84
:100D4C0000232768C4E9003321F0070141F00101B9
:100D5C002183218B01F0070AAA454FF000097FF48B
:100D6C003FAF002F9BD041F00801218388F31188FD
:100D7C00BFF36F8F002FC7D03D68394633465246BC
:100D8C00204604F013FE2F46F4E7AB067FF51AAFAE
:100D9C0025F02003238305F00705FFE6E559000045
:100DAC0002F0C2BB2DE9F047DFF858800446074635
:100DBC004FF0010914B93846BDE8F08794FAA4F550
:100DCC00B5FA85F509FA05F32E0108EB05156FEA5E
:100DDC00030A24EA03042B7B002BEBD058F80630D3
:100DEC001B694BB94644042273682846196807EA04
:100DFC000A0700F05DFADDE7284698470028D9D1AC
:100E0C00F0E700BFA869000030B51049104889B060
:100E1C00002205F042FC0F4D0F4900220023CDE9C2
:100E2C00062300240E23CDE90334CDE901440B4BFA
:100E3C0000944FF44072284603F07EFB0849284684
:100E4C0005F01FFB204609B030BD00BF710E00003D
:100E5C00F005002068010020400D00206111000009
:100E6C00336C0000014803F0A5BC00BF5801002002
:100E7C002DE9F04780461F480F4605F0ADF80646B1
:100E8C00002830D000252846BDE8F087237B73B1BD
:100E9C002368DB680BB12046984723681B69D3B9DC
:100EAC00636804221968204600F002FA01361034F7
:100EBC004C45EBD3B8F1000FE5D0002DE2D028461D
:100ECC00FFF770FF0546002FF7D000214FF4A470F8
:100EDC0003F07EFFF1E7204698470028E0D00AFA9D
:100EEC0006F31D43E2E7044CDFF8109005464FF083
:100EFC00010ADDE778070020A8690000B869000046
:100F0C00014B53F820007047DC69000008B503461C
:100F1C0008462BB1044A136000F080FC002008BD89
:100F2C006FF01500FBE700BF9800002010B5044CD3
:100F3C00237813B9034803F03DFC0123237010BD43
:100F4C00100900205801002010B50446084805F08F
:100F5C0043F85CB1BFF35B8F064B53E8001F0139BC
:100F6C0043E80012002AF8D1BFF35B8F10BD00BF1D
:100F7C0070070020740700200020064BBFF35B8F26
:100F8C00014653E8000F43E80012002AF9D1BFF3E1
:100F9C005B8F70477007002070B5FFF7EDFF084CB2
:100FAC00084E0546B44200D370BD63685B792BB123
:100FBC0023685B6813B12946204698471034F1E743
:100FCC00A8690000B869000010B5044C044920461B
:100FDC0004F093FE034B1C6010BD00BF0801002001
:100FEC00C869000068070020084A094808B50023B2
:100FFC001370084A1360084A4FF400411360FFF75E
:10100C0085FFBDE80840FFF7DFBF00BF11090020D6
:10101C00E15F0000700700207407002001460022E9
:10102C000148002304F08ABE08010020014804F0A6
:10103C0023BF00BF08010020024B0146186804F0D2
:10104C006DBF00BF68070020014804F0A3BF00BFBC
:10105C000801002070B5284B187800284BD0FFF7FA
:10106C00E5FF054690B1BFF35B8F244B53E8001F9F
:10107C00013943E80012002AF8D1BFF35B8F204CF2
:10108C00204EB4422DD32846FFF7D6FF1E4B1F4CE3
:10109C001B68002B19DD05F0FEFA4FF47A72A0FBE9
:1010AC00020302FB0131C30BD4E9002043EA4143A4
:1010BC009B1A4FEAD13140F2E93261EB00019342C5
:1010CC0071F1000101D3FFF767FFD4E9003213F58A
:1010DC007A7342F10002C4E90032BDE87040FFF7B8
:1010EC00B3BF63685B7923B1236829461B6820462C
:1010FC0098471034C5E770BD100900207407002014
:10110C00A8690000B869000070070020E8050020FD
:10111C0070B50D4D297861B90120FFF7A9FE0B4C74
:10112C000B4EB44206D3FFF795FF0028FBD10123E9
:10113C002B7070BD63685B791BB1236820469B687C
:10114C0098471034EDE700BF11090020A869000092
:10115C00B869000000212DE9F0470846FFF788FE2A
:10116C00044658B340F267684FF0000905F006FBDF
:10117C001B4B1C4A1B58136033B11B4B1B68092BB0
:10118C0002DD1A4803F016FB194FDFF860A00025AA
:10119C0044B12046FFF706FE044618B94FF0FF385D
:1011AC004FF0FF39FFF756FF064628B9B5B942464E
:1011BC004B46504603F022FB3546E9E74FF0FF382B
:1011CC004FF0FF39D2E72B689B691BB10022114607
:1011DC00284698471035BD42F5D3E8E7054DFAE7A8
:1011EC00080000006C070020740700205801002044
:1011FC00B8690000A869000013B5184804F0ECFEAB
:10120C00174B1B787BB14FF02003EFF3118483F362
:10121C001288BFF36F8FFFF71DFF84F31188BFF3A4
:10122C006F8F02B010BD0F4B1B68002BF9D050B95B
:10123C0000220023CDE900230B484FF40042002389
:10124C0004F012F8EDE70928EBD1074805F031FA64
:10125C00064802B0BDE8104003F0ACBA7407002099
:10126C00110900206C070020F00500205801002017
:10127C0010B5064B1B68044698472146A0600448ED
:10128C0004F0DAFDBDE81040FFF7B6BF980000206F
:10129C0008010020044A054B9B1AB1EBD30F34BF55
:1012AC0052F831000020704750690000A869000016
:1012BC00084BC31A10B41B114468013323714368E3
:1012CC009A7143681960436801225A7110BCFFF788
:1012DC002DBE00BFA86900002DE9F04F8FB004AF00
:1012EC00C1F34A28B8600D4691467B600C0DB8F1ED
:1012FC00000F63D0002607F114034FF0040B4FF0DE
:10130C000A0AC7F80C80C7E907667E620193CDF81C
:10131C0008B0CDF800A007F11C03F9683246484626
:10132C00FFF73EFAB0F5006F03461CD36C468AB04B
:10133C00D9F8041004AB2648C3E9050140F2FF714B
:10134C00D9611A464FF400711984224B42F8103FB0
:10135C00214833464FF41251FFF7BEFFA5462C37F8
:10136C00BD46BDE8F08FC0F30A0804F1170018441D
:10137C0020F0070080083B60FFF750FE68F3532510
:10138C00044690B13B68154AC7E9083600F11001D4
:10139C0007F11403F961CDE900A3CDF808B0F968A1
:1013AC0007F11C034846FFF7FBF968F353257B68EC
:1013BC00B9682A46204604F045FED0E704F1170030
:1013CC0020F007008008FFF729FE0446EDE700BF78
:1013DC00486C0000040000018069000025600000DA
:1013EC002DE9F04F87B0DDE91269DDE9105A0446AA
:1013FC000F4693469846A6B31021CDF8009033467D
:10140C0052460020CDF81490FEF7F8FF014605F186
:10141C0017000844144B039104F007040BF0070B5E
:10142C00E40020F0070003EA412344EA8B1480080F
:10143C001C43FFF7F3FD44EA0554054640B13EB1A9
:10144C000399CDF80090334652461030FEF7D6FF84
:10145C00434622463946284607B0BDE8F04F04F013
:10146C00F1BD3146D3E700BF00FE0F000EB403B54B
:10147C0003AB014653F8042B0448019301F0D4F854
:10148C0002B05DF804EB03B0704700BFB76000001A
:10149C00CA0605D48B064CBF02490349FFF7E6BFC9
:1014AC00704700BF886C0000876C00002DE9F04F7E
:1014BC0089B09A46DDE914739DF84CB00593169BE0
:1014CC00179E069204460D460493BBF1000F00F0E4
:1014DC00858006F00803079304F09CFD06F00209D2
:1014EC000246002849D086492046FFF7BFFF8046B8
:1014FC00B9F1000F08D016F0440F40D181492A46AB
:10150C002046FFF7B3FF804406F0010353B17E4B36
:10151C007E4953F82B207E4B2046002A08BF1A46E2
:10152C00FFF7A4FF06F00803002B54D0794B7A493F
:10153C0053F82B202046FFF799FF0546069B2BB14D
:10154C0076491A462046FFF791FF0544BAF1000F81
:10155C0005D0734952462046FFF788FF05444544A1
:10156C00002F49D1049B002B4FD1F30700F1C18010
:10157C0031462046FFF78CFFB5E08046B8E7694B53
:10158C0018680028BFD0684B4FF47A791B68B5FBFC
:10159C00F3F54FF46161B5FBF0F300FB135509FB58
:1015AC0005F54FF03C0CB3FBF1F201FB1231B5FB2E
:1015BC00F0FEB1FBFCF300FB1E550CFB131109FBF9
:1015CC0005F50091B5FBF0F55849CDE901E520464C
:1015DC00FFF74CFF97E706F00805AFE7BAF1010FEC
:1015EC0006D1002F65D1049B002B7CD000250CE08C
:1015FC00002FF8D04E485DE04E484F493B462246FE
:10160C0004F0DCF8049B002B69D0DFF83081DFF8A4
:10161C003091049F3146102F204628BF1027FFF72A
:10162C0037FF4FF0000A554546DC059B49461A78B2
:10163C002046FFF71BFF4FF0010A1AF0070F03D1EA
:10164C0041462046FFF712FF57453CD9059B4946BA
:10165C0013F80A202046FFF709FF0AF1010ABAF134
:10166C00100FEAD1374920464FF0000AFFF7FEFE73
:10167C005246059B9A5C344B995C11F0970F08BF4E
:10168C002E2232492046FFF7F1FE0AF1010ABAF187
:10169C00100F1DD01AF0070F03D141462046FFF75B
:1016AC00E5FE57455246E4D841462046FFF7DEFE9C
:1016BC00EBE720485D46A0E741462046FFF7D6FE03
:1016CC000AF1010AAFE722492046FFF7CFFEC4E733
:1016DC00059B3B440593049BDB1B049399D1BBF105
:1016EC00000F7FF442AF204609B0BDE8F04F04F084
:1016FC00CFBC074A05492046FFF7B8FE38E700BFC4
:10170C008F6C0000936C0000EC690000B86C00005A
:10171C008A6C0000006A0000BB6C0000C16C000009
:10172C00C56C0000800700207C0700209C6C00002A
:10173C00ED600000B760000035260000D26C0000A0
:10174C00CA6C0000D46C000056740000D66C00000B
:10175C00D06C00002DE9F0410F884B688E6886B084
:10176C0005460C469046C7F382175BB1144A9B1A88
:10177C0043F3CF01002920DB2078C0F3C200FFF730
:10178C0089FD03462146608851F8102B0197C2F35E
:10179C004A22002A01EB0204C0F30B1008BF0021FF
:1017AC000022CDE90408CDE9021400923146284606
:1017BC00FFF77CFE06B0BDE8F0810023E2E700BF36
:1017CC005069000073B542F20F738B4228BF0B4671
:1017DC0005680F4A04460521684603F07BFD6368E3
:1017EC000C495B6806460B22284604F044FC6368EF
:1017FC003246694628465B6804F03DFC636806493E
:10180C005B681B22284604F036FC02B070BD00BF9A
:10181C009F730000F56C0000D96C0000074A002192
:10182C000123904206D8064A01B901231360054BE7
:10183C001860704740085B000121F2E740420F003E
:10184C007C07002080070020014B01221A70704792
:10185C0012090020014B00201960704798070020E6
:10186C00024B034801221A7004F012BC1309002029
:10187C00306A00000148FFF7A5BF00BF306A0000C6
:10188C0010B5064B18680C46FFF73AFB2146034689
:10189C00BDE8104002480F22184700BF98070020EF
:1018AC00306A000010B9074B18707047064B1B7854
:1018BC001BB141F2883004F0CABDA420002103F012
:1018CC0087BA00BF12090020130900202DE9F84344
:1018DC00DFF874901D4F80460E46042499F8005092
:1018EC0095B902F059FC28463246414602F006FCF6
:1018FC00054602F05BFCE5B101233B7099F8003022
:10190C0073B93046BDE8F88332464146002002F0F8
:10191C00F5FB0546EFE72046FFF7C4FF651E2C4696
:10192C00002002F02FFC0028EBD03B78002BF2D1EA
:10193C00E7E73B78002BE4D0013C2046FFF7B2FFF1
:10194C003B78002BCAD1DCE71309002012090020D8
:10195C00014910220A60704710ED00E072B6404059
:10196C0080F31188BFF36F8FBFF34F8F30BF62B618
:10197C00BFF36F8F704700BF72B6494081F3118877
:10198C00BFF34F8F20BF80F3118862B6704700BF42
:10199C002DE9F047814600AF0C4600294CD06E462D
:1019AC008AB0D1E90012A3686D462748A8464FF0CB
:1019BC00050AC5E90501C5E9072348F810AF234816
:1019CC00424600234FF42151FFF786FCB546D4E97B
:1019DC0003126369AD461E48C5F810A0C5E90501A0
:1019EC00C5E907231948002342464FF42151FFF75C
:1019FC0073FCB54688B0E3696D46164AA8464FF0AD
:101A0C00030AC5E9052348F810AF104800234246E5
:101A1C004FF4C251FFF760FCB546A369AD460E4AC0
:101A2C00C5F810A0C5E905230848002342464FF429
:101A3C00C251FFF751FCB5462146484602F0BCFBAB
:101A4C00BD46BDE8F08700BF316D0000986900000D
:101A5C00606D00008F6D00009E6D000040B200288C
:101A6C0007DB044A4109012300F01F00834042F8C0
:101A7C002130704700E100E0054B420900F01F00E7
:101A8C0053F82220012303FA00F01040704700BFE6
:101A9C0000E100E040B20028A8BF00F1604001F175
:101AAC000101B8BF064B4FEA4111ACBF00F56140D4
:101ABC0000F00F00C9B2B4BF195480F8001370477E
:101ACC0014ED00E030BFFFF7FDBF00BF0B4A08B5B7
:101ADC000B4B22F07F029A60BFF34F8FBFF36F8FD7
:101AEC00D3F8882022F47002C3F8882002F022FC7C
:101AFC0003F0EEF900F00CFC02F06EFC00000000AC
:101B0C0000ED00E0094A0A49936809689967094998
:101B1C0058674B6843F080534B60002383F3118864
:101B2C00BFF36F8F9368986F704700BFE008002079
:101B3C00EC6A000000ED00E015498A684FF03000B7
:101B4C001044EFF3098C80E8F01F202080F31288FA
:101B5C00BFF36F8F0F4F4FF000664A698A603E608B
:101B6C004FF07004141920680B4C2060506F002348
:101B7C00536780F3118804B5104600F077FCBDE87C
:101B8C00044002F1300090E8F01F8CF30988704794
:101B9C00E008002004ED00E09C0700201EF0040F7C
:101BAC000CBFEFF30880EFF30980816911F8021C78
:101BBC000229FFD001B504F0A1FA01BD42F8203C86
:101BCC00009B42F81C3C0A49019B42F8183C029BC2
:101BDC0042F8143C21F001014FF0807342F8043CB0
:101BEC0042F8081C0023203A02654367704700BF87
:101BFC005D0B0000094A0346906870B113F1160F93
:101C0C00006E05D0A0F140029A4205D8834203D25F
:101C1C00814228BF0020704700207047E008002058
:101C2C0008B514460A4A0B4B9060026F1A600D46B9
:101C3C0000F01CFC204685F30988002163B681F373
:101C4C001188BFF36F8F00220023FEF781FF00BFC6
:101C5C00E00800209C07002001B5EFF30580A0F1FF
:101C6C0010004FEAC0000449014409C99847BDE877
:101C7C00014002490847000018680000E91C0000F8
:101C8C00114B124A2DE9F041D518DFF84480013D83
:101C9C00B5FBF3F55D430F4B08EB0304013CB4FBC0
:101CAC00F3F403FB04540E1B07460B49304604F0B7
:101CBC0046FD701942460021083E04F04EFD3E6779
:101CCC0004F10800BDE8F0810100000000000000F4
:101CDC000400000004000000B8690000044B99687F
:101CEC005869884203D003494FF080520A6070470C
:101CFC00E008002004ED00E02DE9F04186B0064636
:101D0C0000AF0D46474B7B6102244FF4825146488D
:101D1C003C6107F1100204F000FA444B9B6AD904B1
:101D2C006DD5434B4048C7E9044307F110024FF40B
:101D3C00825104F0F2F917203C4B9B6A1A050BD523
:101D4C003C4B7B61022338483B6107F110024FF496
:101D5C00825104F0E2F91820344CA36A9B0523D578
:101D6C00E846354B7B6102232F483B6107F110029B
:101D7C004FF4825104F0D1F9A36BA26A100412D56E
:101D8C0088B06A462D492848C2E90513032342F856
:101D9C00103F4FF4C25104F0C0F9C5461EB1A36AFE
:101DAC0023F40043A3621920204B9B6A59050BD5E1
:101DBC00234B7B6102231C483B6107F110024FF45B
:101DCC00825104F0AAF91A20184B9A6AD20518D538
:101DDC001C4B7B61022314483B6107F110024FF44A
:101DEC00825104F09AF91B20104A936A43F47F4302
:101DFC009362183700232B70BD46BDE8F081162086
:101E0C009AE79B6A9B04EFD50F4B7B610223064834
:101E1C003B6107F110024FF4825104F07EF91C2053
:101E2C00E2E700BFCC6D00009869000000ED00E017
:101E3C00E26D0000F36D0000066E00001F6E0000E6
:101E4C00346E00004F6E0000676E000010B586B057
:101E5C00364B3748059304AA02244FF4825104945C
:101E6C0004F05BF9334B9B6A9A015DD5324B3048D9
:101E7C0004AA4FF48251CDE9044304F04EF91E201C
:101E8C002C4B9B6ADB010AD52C4B2948059304AAE1
:101E9C0002234FF48251049304F03FF91F20254B89
:101EAC009B6A1C030AD5264B2148059304AA0223DE
:101EBC004FF48251049304F030F921201D4B9B6A9E
:101ECC0059030AD51F4B1A48059304AA02234FF451
:101EDC008251049304F021F92220164B9B6A9A0339
:101EEC000AD5194B1248059304AA02234FF48251C8
:101EFC00049304F012F923200E4B9B6ADB030AD5E2
:101F0C00124B0B48059304AA02234FF482510493FD
:101F1C0004F003F92420074A936A6FEA03436FEA3B
:101F2C001343936206B010BD1D20A9E7966E000006
:101F3C009869000000ED00E0AE6E0000C16E00007C
:101F4C00DB6E0000F96E00001E6F0000386F0000A1
:101F5C002DE9F04786B0814600AF8A469046514B3A
:101F6C007B61022450483C6107F110024FF482510E
:101F7C0004F0D3F84D4B9B6ADE0645D54C4B4A48D2
:101F8C00C7E9044307F110024FF48251112404F005
:101F9C00C4F8464B9B6A1D070BD5464B7B6102234D
:101FAC0041483B6107F110024FF48251122404F0B6
:101FBC00B4F83E4DAB6A980728D56C463E4B7B6116
:101FCC0002233B614FF48251374807F1100204F0B1
:101FDC00A4F86E6BAB6A190660D588B06A46374BAD
:101FEC003148C2E90536032342F8103F4FF4C25181
:101FFC0004F093F8A546BAF1000F03D0AB6A23F0B6
:10200C008003AB62132403E01024C2E76FF01506C3
:10201C00264B9B6ADA070BD5294B7B61022322489E
:10202C003B6107F110024FF48251142404F075F84F
:10203C001E4B9B6A9B060BD5224B7B6102231A48D5
:10204C003B6107F110024FF48251152404F065F83E
:10205C00164B9A6AD50602D49A6A90070AD55B6821
:10206C00190507D549463046FFF7C4FD10B180F37A
:10207C00098802240D4B9A6A920642BF5A6A22F4CE
:10208C0000525A629A6A42F0FF029A62204600237A
:10209C00183788F80030BD46BDE8F0876FF015069C
:1020AC00B0E700BF636F00009869000000ED00E02E
:1020BC00796F0000F36D0000AC6F0000C46F00007E
:1020CC00DA6F0000676E00002DE9F0437A4B8BB09D
:1020DC00D3F8048000AF0446C8F30805002686F345
:1020EC001188BFF36F8F02F07F43B3F17F4F0ED196
:1020FC0002F00C03082B19D1704BFB6102237048C2
:10210C00BB6107F118024FF4825104F006F8002667
:10211C0034460023FB71EB1E092B00F2AD80DFE887
:10212C0003F00AA0A39CABABABABABA610074CBFA8
:10213C000C460126EDE7E946624BFB614FF00208C5
:10214C0007F118025E48C7F818804FF4825103F06B
:10215C00E4FF0023584DFB71EB6A9A070BD55A4BE1
:10216C00C7E90683564807F118024FF4825103F071
:10217C00D4FF002342E0EB6A002B01DA534BEFE76C
:10218C00EB6A5B00F5D5524B4D48C7E9068307F166
:10219C0018024FF4825103F0C0FF6B69A26943F43B
:1021AC0080736B61BFF34F8FBFF36F8F6B6932F826
:1021BC00022C23F480736B61BFF34F8FBFF36F8FCF
:1021CC004DF602739A4209D0AB6ADBB2002B37D0C2
:1021DC00FA1D01212046FFF7BBFE40E088B02368C2
:1021EC006A463C493648C2E90513032342F8103FBE
:1021FC004FF4C25103F091FF2368CD46FA79DAB956
:10220C0007F1080504F1200C206861682A4603C216
:10221C00083464451546F7D17A6A002E47D0C2F3CC
:10222C00080121B96FEA52226FEA42227A6207F161
:10223C0008011846FFF7ACFB2C37BD46BDE8F08310
:10224C00AB6A13F47F4F04D0F91D0120FFF754FD46
:10225C0005E0AB6AB3F5803F8BD3FFF7F7FD034680
:10226C00CCE7FA1D0021B5E7F91D0020EEE71A4B6B
:10227C00FB610223BB6175E7184A194B18F4F87F10
:10228C00E8468AB018BF13466A4616490C48C2E99C
:10229C0005134FF400731384103D134BD5614FF4A9
:1022AC00115142F8103F03F038FFC54661E722F4A4
:1022BC00FF7222F00102B9E700ED00E02770000088
:1022CC009869000052700000697000008A7000006C
:1022DC0098700000B7700000D37000000E70000002
:1022EC00F96F0000F770000004000001024A536906
:1022FC0043F010035361704700ED00E0EFF30880EA
:10230C00EFF3098101B57246FFF7DEFE01BD00BF98
:10231C00044800232021C2180133272B82F8001314
:10232C00F9D1704700E100E0002080F31488BFF37E
:10233C006F8FFEF735FD00200D490860BFF34F8FFE
:10234C000C4880F3088800F03DF8202080F31188B9
:10235C0009484FF40461401880F30988EFF31480A6
:10236C000221084380F31488BFF36F8FFFF7AEFB95
:10237C0094ED00E0401E002080100020BFF34F8F32
:10238C000549064BCA6802F4E0621343CB60BFF305
:10239C004F8F00BFFDE700BF00ED00E00400FA0521
:1023AC000749D1F890200023C2F307221846934224
:1023BC0000DB7047C1F89830C1F8A0000133F6E794
:1023CC0000ED00E008B572B6002383F31388FFF725
:1023DC00E7FF144B4FF0FF32C3F88020C3F8842082
:1023EC00C3F88820C3F88C20C3F89020C3F894203D
:1023FC00C3F89820C3F89C20C3F88021C3F884212B
:10240C00C3F88821C3F88C21C3F89021C3F8942118
:10241C00C3F89821C3F89C2162B6BFF34F8FBFF36A
:10242C006F8F08BD00E100E0084B9B6883420BD125
:10243C00EFF3058343B1064B5A6842F080525A6061
:10244C005A6A22F400425A6202F0E2BCE008002010
:10245C0000ED00E0024B034A0348012100F092B862
:10246C000000012000000020406A0000026E054BB5
:10247C00403A1A60044A4021C3E90112184601216E
:10248C0000F08AB8A007002000000B152DE9F041E0
:10249C00DFF8B4E09C4600AF154600238B421ADAF5
:1024AC004468002C4DD0BCF1000F1DD0661E344288
:1024BC0015D06C4688B06A462449C2E9051303233B
:1024CC0042F8103F224800234FF4C251FEF704FF9C
:1024DC006FF01505A5462846BD46BDE8F0811F2CBA
:1024EC00E7D902681642E4D1202C026886685FFAAC
:1024FC0085F814D9B4F1004F13D8013CB4FA84F424
:10250C00C4F11F046400B8F1070F46EA04060AD9A7
:10251C006C4688B06A460F4BC2E90535CFE70824F4
:10252C00F1E73E24EFE722F01F022A4342F01002AB
:10253C0046F00106CEF89850CEF89C200135CEF826
:10254C00A06001330C30A9E700ED00E00E71000033
:10255C009069000031710000044B0522C3F89420EF
:10256C00BFF34F8FBFF36F8F704700BF00ED00E0DC
:10257C00BFF35F8F024B0022C3F89420704700BF5B
:10258C0000ED00E010B5034C01232278FFF77EFF2D
:10259C00207010BD2409002008B5094A00231278C8
:1025AC00FFF774FF10F1160F03D0064B002207281B
:1025BC0000DD08BDC3F89800C3F8A0200130F6E791
:1025CC002409002000ED00E014490868082810B523
:1025DC0021D8FFF7CDFF124C49680022904201F13F
:1025EC000C0105D10F4B1870FFF7B6FF002010BD82
:1025FC00C4F8982051F80C3C23F01F03134343F00C
:10260C001003C4F89C3051F8043C43F00103C4F8A7
:10261C00A0300132E2E74FF0FF30E8E74C6A0000EF
:10262C0000ED00E024090020F0B587B007460E4607
:10263C0014460021102268461D4604F08EF8022331
:10264C008DF802302A46054B019321466846CDE9A8
:10265C00047602F06BFE07B0F0BD00BF2D610000E8
:10266C0008B50649064821F00701C1F1005202F5F0
:10267C00803203F032F9002008BD00BF931E002009
:10268C00801E0020044A0123C2F840354FF08042DE
:10269C000020C2F87835704700E0014020B1034BB0
:1026AC00800143F001031847704700BFC069000068
:1026BC00054B0122C3F8002590F8761009B1DA60B9
:1026CC0070471A605A6070470070004070B5087906
:1026DC0000F01F04072C86B023D80B780B2B15D8D1
:1026EC00DFE803F007070707140614140E10141282
:1026FC0004234A78032A18D0042A28D0314B06E048
:10270C000523F6E70623F4E70723F2E72E4B0593A0
:10271C00022304932D48002304AA4FF48251FEF7A0
:10272C00DBFD6FF0150006B070BD01254A8844F240
:10273C000A06B2423FD00CD844F20306B24216D07D
:10274C0044F20506B24234D0AAB3214BDFE7002590
:10275C00ECE744F21406B2422FD044F22806B242FF
:10276C002DD044F20F06B242EFD1032200E000223A
:10277C00C0F340101B0243EA005343EA053343EA1B
:10278C000243220102F1804202F5E0420020C2F82D
:10279C001835230103F1804303F5E0438A79C3F82C
:1027AC001425C3F810050B4B4A79234483F8902069
:1027BC00B9E70122DCE70222DAE70422D8E7052296
:1027CC00D6E700BF897100006A71000060690000E3
:1027DC00AD710000000000202DE9F04188B00D46DD
:1027EC0002AF4FF0FF337A484FF0FF3202F006F899
:1027FC006E68731EFE2B0CD9764B7B6102233B61FA
:10280C007548002307F110024FF48251FEF764FD66
:10281C001BE00021714CDFF8C8C10A4626FA01F30F
:10282C0013F0010340D01CF80130C3B96C4688B0DA
:10283C0002AA6C48C2E90501032142F8101F664840
:10284C004FF4C251FEF748FDA5466FF015046048E1
:10285C0001F0B0FF20461837BD46BDE8F08104EB0F
:10286C00011895F811E0D8F81805BEF1000E18BF44
:10287C004FF0010E20F0807040EA0E60C8F8180589
:10288C0001F15100000101322350D2B2013108296B
:10289C00C4D12B7CA3F10801062916D8DFE801F07E
:1028AC00201522150915130001F1510000012350C8
:1028BC00ECE702234949012AC1F8F0356B7C13D9A6
:1028CC00A3B1494B99E70323F4E76C4688B002AAFD
:1028DC004649C2E90513032342F8103F0023AEE733
:1028EC000023E7E70123E5E7082B1BD8C1F8F435F3
:1028FC0029685300D9B9E96899421CD26C4688B052
:10290C0002AA3B48D3610423C2E9050142F8103FF7
:10291C00314800234FF40151FEF7DEFCA5466FF061
:10292C000B0494E76C4688B002AA3249D1E7898936
:10293C0001FB0333DFE7294BA968C3F82C16AC461F
:10294C00C3F83026BCE80F002B4C04F164060FC60C
:10295C00DCF800303360002626662B68A44693B35F
:10296C000FCB04F1780585E80F006566A4F8886044
:10297C0048B3BFF35B8F5CE8003F4CE80062002A71
:10298C00F9D1BFF35B8F1D49A06F1D4A4FF4004571
:10299C008C463146E0FB05C100236046FDF798FBF1
:1029AC000022CDE90001002304F1080002F05CFCD8
:1029BC0014484FF0FF324FF0FF3301F01FFF00B10E
:1029CC002066246E43E70C48FFF772FEF0E700BF69
:1029DC0040000020D87100006069000000700040C9
:1029EC0090000020F671000035720000107200009B
:1029FC008A72000067720000000000203F420F0046
:102A0C0040420F005000002010B50E4B0024C3F8BC
:102A1C000441D3F80421C3F81041D3F81021122239
:102A2C00C3F804230720FFF719F8224601210720D9
:102A3C00FFF730F80448836C13B9403001F0BAFE4C
:102A4C00002010BD007000400000002038B52E4B57
:102A5C00D3F80421002A49D00022C3F80421D3F86A
:102A6C0004112A4C01219960C3F80025636E254698
:102A7C00BBB3E36FB4F8882033B104F16401984719
:102A8C00012814D0022827D0B4F88830B4F8842058
:102A9C009A4221D90133A4F888301B4BD3F82C2649
:102AAC00D3F8341689B202EB4102C3F82C26A36F7B
:102ABC0023B9BDE838401548FFF7FABDBFF35B8F6B
:102ACC0055E8003F5A1E45E800210029F8D1BFF314
:102ADC005B8F012BEDDC38BDA36F13B10C4803F0F9
:102AEC00E8FD0C48BDE8384001F064BED3F8101185
:102AFC000029F0D0C3F81021D3F8102101229A60DC
:102B0C001A605A60E7E700BF007000400000002028
:102B1C000800002050000020084B70B5C31A0D4669
:102B2C0007499B10044659430648402203F031FBE9
:102B3C002B4601462046BDE870401847C0070020D0
:102B4C00B76DDBB6DC67000073B50C4C0C4A402348
:102B5C00041B00930D460B460A49A410614306461C
:102B6C00094803F042FB011E05DA30462B4602B041
:102B7C00BDE87040184702B070BD00BFC007002010
:102B8C0061620000B76DDBB6DC67000010B54FF07A
:102B9C002003EFF3118483F31288BFF36F8F074A7E
:102BAC00136823F00201DB07116002D4012003F04B
:102BBC00E3FB84F31188BFF36F8F10BD1008002066
:102BCC00002270B5012104461046FEF763FF0F4842
:102BDC0000F05CFE0E4B984215D103F0C0FB266949
:102BEC000C49304602F006FF00280BDB012535644A
:102BFC002469084904F11C0002F0FCFE002801DBEA
:102C0C00E564002070BD6FF00400FBE7592C000058
:102C1C000000AD0B786A000070B501460C23094822
:102C2C004B43C418D4E90E56403300221844A26317
:102C3C0003F09CFA2DB132462B460348BDE8704098
:102C4C00184770BDC0070020DC67000010B10128D8
:102C5C0004D07047034B1B6C5B0701D1FFF7DCBF43
:102C6C00704700BFC007002008B54FF02003EFF3FA
:102C7C00118183F31288BFF36F8F124A136843F0EC
:102C8C0002001060DA0708D481F31188BFF36F8F4C
:102C9C000120BDE8084000F009BE4FF08043D3F896
:102CAC000C24D3F80C34DB07EED5074803F05EFA9E
:102CBC0081F31188BFF36F8F0020BDE80840FFF748
:102CCC00ABBF00BF10080020000800201FB5002279
:102CDC000123CDE90223094ACDF800D06B46CDF88B
:102CEC0004D003F0B0FA002805DB4FF48042002337
:102CFC00684601F083FD05B05DF804FB79620000C5
:102D0C0010B5074C23782BB94FF4A57003F09FFB3B
:102D1C0001232370BDE81040002000F0C7BD00BFA8
:102D2C00250900202DE9F0413849BFF35B8F074698
:102D3C00012251E8003F41E800200028F9D1BFF3FF
:102D4C005B8F33B9324933484B60CB608A6002F0F9
:102D5C0064FE7B1E012B2BD8012F07D14FF0804333
:102D6C00D3F81C3403F00303012B21D003F083FBB5
:102D7C000546F8B9284B1B78E3B14FF0804302228B
:102D8C00C3F808230646DFF894804FF08044D4F84B
:102D9C001824D4F81834D20316D503F00303012BEE
:102DAC0001D0012F10D15DB386F31188BFF36F8F63
:102DBC00BDE8F0814FF02003EFF3118683F3128806
:102DCC00BFF36F8F0125DEE7ADB13046FEF7D4FDC2
:102DDC00D4F81835002BDAD1D4F80421002AD6D037
:102DEC00C4F80431D4F804310123C4F81835C8F8F8
:102DFC008031A360CBE70021212001F0E9FFE7E758
:102E0C004FF080430222C3F80423D1E7BC07002013
:102E1C00AC070020DC070020360D002000E100E0AC
:102E2C0030B54068057B01F01F04B2F5001F85B07A
:102E3C0044EA451405D1204601F020F8002005B0E5
:102E4C0030BD0025B2F5800FCDE9025514D1B3F198
:102E5C00007F0CBF042305238DF80830002319468E
:102E6C0002AA204600F03EFE214B984239D10121A6
:102E7C00204600F0B7FFE1E7B3F1C06F26D0B3F105
:102E8C00007F14BF012302238DF80830836823FAD6
:102E9C0001F111F00101E1D1B2F1A07FDED104F01A
:102EAC001F03620903F5E0731ED14FF0A04252F8E4
:102EBC002330DB07D2D40DF107052946204600F05C
:102ECC003DFF0C4B984203D00395C7E70323DBE788
:102EDC00284600F081FF064B9842F5D06FF00B00AE
:102EEC00ADE76FF01500AAE751F82330FFDE00BF05
:102EFC000000AD0B0400AD0B10B500F05DFF0446F7
:102F0C0068B900F031FF084B98420AD107482146B6
:102F1C0000F00EFF224605210620FEF7BBFD002027
:102F2C0010BD6FF00400FBE70000AD0B3D2F00005F
:102F3C00430970B507D10B4B596821B101250C68B9
:102F4C00094E854001B970BD8A682A4002D04B6891
:102F5C00304698471CB1236821461C46F2E72346AD
:102F6C00FAE700BF14080020F06700002DE9FF41CC
:102F7C0047683B7B01F01F0545EA43150E46284682
:102F8C000DF10701144600F0D9FE14F4403F8046C1
:102F9C000DD1284600F098FF3D4B984503D19DF884
:102FAC00070000F013FF002004B0BDE8F0810023FF
:102FBC00194602AA2846CDE9023300F093FD344BA2
:102FCC00984214D1804503D19DF8070000F0FEFE15
:102FDC00A3034ED540F206332340B3F5837F1AD0BA
:102FEC000DD8062B18D005D8B3B1022B33D06FF007
:102FFC001500D9E7B3F5807FF9D101230CE040F23D
:10300C000222934229D0B3F5407F28D0B3F5007F3C
:10301C00EDD1022300E007238DF8083084F48033CF
:10302C00C3F30043E0068DF8093054BFC4F34013DA
:10303C00032321038DF80A3013D57A680123B3409A
:10304C00C2F80835002202A9284600F0FBFD104BFF
:10305C009842A8D0CBE70423DEE70523DCE7032363
:10306C00DAE7620341BF01237A68B340C2F80C353A
:10307C00E8E7E3064FF0000354BFC4F34014032405
:10308C001A4602A928468DF8084000F02BFDDEE711
:10309C000000AD0B70B5012383400E4ABFF35B8F6C
:1030AC00DC4352E8001F01EA040542E80056002EFA
:1030BC00F7D1BFF35B8F4FF4803282400648C0F8E3
:1030CC000823BFF35F8FBFF36F8F0B4214BF012038
:1030DC00002070BD240800200010014070B40E497F
:1030EC00D1E90034D01AC31844F1000422F07F4611
:1030FC00C1E90034A6F50013B3F5400F09D2074B14
:10310C001B681A0A1B069C19054B42F10005C3E902
:10311C00004570BC01F0B2BF380600202808002022
:10312C004006002011B3BFF35B8F0123104A83408C
:10313C0052E800CF4CEA030C42E800C10029F7D159
:10314C00BFF35B8F0B4A4FF480338340C2F80433D8
:10315C00094BBFF35B8F1B68BFF35B8FC340DB076F
:10316C0042BF064B4FF40032C3F80021704700BF3A
:10317C0024080020001001402008002000E100E09D
:10318C000D4B1868010A0006BFF35F8F0B4BD3F889
:10319C000435181841F10001B3F5801F0AD2084B11
:1031AC00D3E90023904271EB030303D210F180703A
:1031BC0041F10001704700BF2808002000100140B9
:1031CC00400600202DE9F04F85B016461F469DF8AD
:1031DC0040A00446FFF75EFF0190FFF7D1FFB0421D
:1031EC0071EB070354D23E4B301A67EB0101984246
:1031FC0071F100014FD23B4B03EB0413D3E90223D3
:10320C009F4208BF96425ED037494FF4803804F194
:10321C00500508FA04F8AD00C1F848832046ADB259
:10322C0003F07CF826F07F4B05F1804504F5A8737C
:10323C0005F58835DC464FF003090293029A2CF011
:10324C007F4341F82230C1F84483D1F80435274A32
:10325C006FF00200C01A604420F07F40904232D9D7
:10326C00286868B1D1F804350393A3EB0B0020F068
:10327C007F40B0F5000F26D9204603F04FF8039B92
:10328C00BAF1000F07D109EB030C09F10109D5E7DD
:10329C00BAF1000F09D06FF0150520460199FFF720
:1032AC0041FF284605B0BDE8F08F0123104ABFF35B
:1032BC005B8FA34052E8000F184342E8000100293D
:1032CC00F8D1BFF35B8F07490E98230101EB041271
:1032DC00C8500F9B5360C2E902670025DDE700BFB1
:1032EC00010080002806002000100140FDFF7F0037
:1032FC00200800207FB51C4C1C4BC4F80833C4F8C4
:10330C0048331B4B00254FF0FF304FF0FF31C4F812
:10331C000855C3E902014FF48033C4F80433154B4C
:10332C0002264FF400320121C4F804631120C3F8C3
:10333C0080212A46FEF7AEFB1120FEF78FFB0E4ACA
:10334C000123A360236013600C4B0D4A0093CDE95D
:10335C00015500232846FFF735FF3046FFF7E2FC06
:10336C00284604B070BD00BF0010014003000F00E0
:10337C002806002000E100E024080020E9300000CD
:10338C00FFFF7F002DE9F7432F4CD4F80433990746
:10339C000BD5D4F8043143B12C4A0023C4F80431C2
:1033AC00D4F80431136801331360D4F80433DA030E
:1033BC002AD5BFF35B8F264B53E8002F22F0010177
:1033CC0043E800100028F7D1BFF35B8FD30702D47A
:1033DC00D4F84031C3B10025C4F84051D4F8403181
:1033EC00FFF7CEFE4FF02003EFF3118283F3128828
:1033FC00BFF36F8F174BD3E90267B042B94106D2C6
:10340C0082F31188BFF36F8F03B0BDE8F0834FF0E8
:10341C00FF384FF0FF39C3E90289D3E900101D6072
:10342C004FF48033C4F84833C4F84051D4F84031D9
:10343C0082F31188BFF36F8F0029E5D000903246DC
:10344C003B4628468847DFE700100140280800204B
:10345C0020080020280600201FB5431C23D001287B
:10346C0023DD134A134B9042D4BF04461C46FFF78E
:10347C0087FE114B0F49D3E90023801AB0F5000FDA
:10348C0028BF002404448C4228BF0C46A2180B49C8
:10349C0000914FF00000CDE9010043F10003FFF76C
:1034AC0091FE04B010BD034CE1E70124DFE700BF3F
:1034BC00FEFF7F00FFFF7F0038060020E930000090
:1034CC0008B5FFF75DFE024B1B68C01A08BD00BFB4
:1034DC00380600207FB5FDF71BFE074B0593022332
:1034EC0004930648002304AA4FF48251FDF7F4FE1E
:1034FC000020FEF743FF00BF027300007869000054
:10350C004FF0704393F8E02F062A09D1D3F8E83F27
:10351C00C3F30313033B042B02D8024AD05C70475D
:10352C00002070472E73000008B502F007FF40B171
:10353C004FF08053784AD3F82433C3F30423C2F8F2
:10354C004035FFF7DDFF10B1744B754A5A6702F036
:10355C00F5FE48B14FF080534FF08042D3F844321F
:10356C00C3F34233C2F83C35FFF7CAFF30B16D4AA2
:10357C00D2F8FC3023F08073C2F8FC3002F0DEFE8F
:10358C0040B14FF080430022C3F80C21C3F8102146
:10359C00C3F83825FFF7B4FF20B14FF08043032266
:1035AC00C3F8A025FFF7ACFF60B15F4B0522C3F851
:1035BC0010260122C3F888260022C3F818263F22C1
:1035CC00C3F814264FF08053D3F83021511C09BF97
:1035DC004FF07043D3F8343193F8E02FD3F8E83F31
:1035EC0008BFC3F30313062A4DD1033B042B03D8A6
:1035FC004E4AD35C002B46D04FF080524C4BD2F845
:10360C000414C3F82015D2F80814C3F82415D2F802
:10361C000C14C3F82815D2F81014C3F82C15D2F8D2
:10362C001414C3F83015D2F81814C3F83415D2F8A2
:10363C001C14C3F84015D2F82014C3F84415D2F862
:10364C002414C3F84815D2F82814C3F84C15D2F832
:10365C002C14C3F85015D2F83014C3F85415D2F802
:10366C003414C3F86015D2F83814C3F86415D2F8C2
:10367C003C14C3F86815D2F84014C3F86C15D2F892
:10368C004424C3F8702502F059FE48B14FF0805322
:10369C004FF08042D3F8583203F04F03C2F8E43EA7
:1036AC0002F04CFE48B14FF08043D3F80024D2070F
:1036BC0044BF6FF00102C3F800244FF08053D3F8DD
:1036CC003021062A26D1D3F83431033B042B02D8FF
:1036DC00184AD35C63B1184AD2F83C3743F4806380
:1036EC00C2F83C374FF08053D3F83031062B11D150
:1036FC004FF08053D3F83431033B042B02D80F4ADC
:10370C00D35C3BB14FF01023D3F808224FF0804329
:10371C00C3F8582508BD00BF0030014000C0074069
:10372C000DF0ADBA00ED00E0005000402973000030
:10373C0000C0004024730000001000401F73000004
:10374C0030B50468CCB1BFF35B8FB4FA84F3C3F12A
:10375C001F03DBB201229A4024EA020250E8005F08
:10376C00A54204D140E8002CBCF1000FF6D1BFF308
:10377C005B8FE6D102480B7030BD0248FCE700BFFE
:10378C000000AD0B0200AD0B10B50368CB40DB079E
:10379C0014D401238B400268BFF35B8F43EA020110
:1037AC0050E8004F944204D140E8001CBCF1000FDB
:1037BC00F6D1BFF35B8FEED1014810BD0148FCE799
:1037CC000000AD0B0400AD0BF7B5044618B1012891
:1037DC0023D003B0F0BD4FF080430222C3F808237E
:1037EC00C3F80401D3F804210122DA600646012350
:1037FC008DF8073042F210754FF08047D4B1012C90
:10380C00E7D1D7F80C3403F48033AEBB83B301207B
:10381C0002F0A3FD013DF4D12AE04FF080430022D9
:10382C00C3F80803C3F80021D3F8002158600DF148
:10383C000706DCE7D7F8183403F480333EB9002BC5
:10384C00C7D0012002F089FD013DF3D1C1E7D7F8C3
:10385C00182402F003023260002BBAD09DF8070046
:10386C00012803D102F079FD013DC7D1012CB0D163
:10387C00054B00225A71ACE7D7F80C2402F0010278
:10388C003270002BEAD1F3E72C080020044B1A7994
:10389C0022B9012218609A8002487047024870478A
:1038AC002C0800200000AD0B0C00AD0B38B510B18E
:1038BC00012843D038BD4FF08042D2F81814D2F80A
:1038CC001834C8032ED503F00303012B04D013B115
:1038DC000020FFF779FF00234FF08042C2F8183523
:1038EC000023C2F80431D2F804310223C2F80433A5
:1038FC00184AD2F8FC0040F08073C2F8FC30164B2A
:10390C001C6844F0010119605D685968491BB1F5E8
:10391C000A5FFAD31C604FF08043C2F8FC0001220E
:10392C009A60C7E7D2F81434D907D4D5D2F81C342E
:10393C009B07CDD40223C2F80433BBE74FF080437E
:10394C000022C3F80021D3F80021C3F80403186047
:10395C00B0E700BF00ED00E0001000E010B54FF044
:10396C008043D3F800216AB10022C3F80021D3F8B8
:10397C0000210122C3F80823114B587910B95A7150
:10398C001B6898474FF08043D3F8042172B1002292
:10399C00C3F80421D3F80421D3F81824D3F818243D
:1039AC00920704D10122C3F818259A6010BD022297
:1039BC00C3F80823024BBDE810401B6801201847D0
:1039CC002C080020C0B2034B083033F81000C0F3B1
:1039DC00401070479C000020C0B2034B083033F8F5
:1039EC001000C0F3400070479C000020C0B2034B95
:1039FC00083033F81000400B704700BF9C000020CB
:103A0C0070B500F108030C4C34F81330DA05054698
:103A1C000E4607D5C3F3432304EBC30254F83330EB
:103A2C0052689847A3682BB1E26831462846BDE836
:103A3C007040184770BD00BF9C00002010B4C0B28D
:103A4C00114A083032F81030D9051BD5C3F3432185
:103A5C0023F4F85322F8103002F10E04002034F84D
:103A6C00023F13F4807F03D0C3F34323994209D060
:103A7C0001302028F3D1002342F83130034810BC28
:103A8C00FFF782BE10BC70479C000020F0000020A5
:103A9C00F0B50146104A114C00200125064602F1F2
:103AAC004043A3F5C2439B0805FA03F3194204D023
:103ABC00176817B11660176818430432A242EED18A
:103ACC00074BD3F87C2132B10022C3F87C21D3F808
:103ADC007C3140F00040F0BD0061004020610040AE
:103AEC0000600040F0B5044685B017461D4601B392
:103AFC00FFF772FF18B12046FFF764FF08BB0023E5
:103B0C00CDE900338DF80E308DF80F300DF10F022A
:103B1C000B4620460DF10E0102F03AFCE3B244498B
:103B2C00083331F8132022F0020242F0010221F88E
:103B3C00132057B320463E787A68FFF74DFF10B13B
:103B4C00C2B13C4823E0E3B2DFF8E4C008333CF8F0
:103B5C00131021F02001C904C90C2CF813104AB120
:103B6C00032EEED87A6817789EB9334B07F5A277F7
:103B7C0043F82760E3B22E49083331F8132022F0C2
:103B8C001C0242EA860221F813203DBB2B4805B0EB
:103B9C00F0BDBA0002F1804202F5C04241EA473161
:103BAC00D2F8100520F00300C2F81005D2F8100569
:103BBC0020F4473020F44070C2F81005D2F810E51C
:103BCC00200200F4F85040EA0E0040EA064041F0B2
:103BDC0020012CF81310C2F81005CBE7D5E90067CB
:103BEC002046FFF72BFF002ED0D0114DD5E9002336
:103BFC00964201D19F4219D011480DF10F01FFF7E8
:103C0C009FFD0E4B9842C2D19DF80F2045F83260B3
:103C1C00E4B205EBC20308345F6035F8143043EAB4
:103C2C00422343F4807325F81430AFE70022EDE70C
:103C3C009C0000200400AD0B006000400000AD0BA8
:103C4C00F0000020F0B5044685B0164629B3FFF706
:103C5C00C3FE20B92046FFF7B5FE00285FD1E5B2C0
:103C6C00304F083537F8153013F01C0F02D04B7855
:103C7C00012B54D001238DF80F300023CDE9001314
:103C8C004A1C8B1C20460DF10F0102F081FB37F80A
:103C9C00153043F0030327F8153016B9224805B048
:103CAC00F0BD2046FFF798FEC8B3E5B21D4F96F85D
:103CBC0000C00835614637F81500890020F0200057
:103CCC0001F18041C00401F5C041C00C27F815007A
:103CDC000023C1F810357278002ADFD0D1F81035E6
:103CEC00B67823F4981323F4F853C1F81035120462
:103CFC002302D1F810E502F4403203F4F8531343D5
:103D0C00320543EA0E0302F4801240EA4C301343AE
:103D1C0040F0200027F81500C1F81035BEE7034825
:103D2C00BDE700BF9C0000200000AD0B0400AD0BF4
:103D3C00014BC3E9020170479C00002008B5024604
:103D4C00FFF740FE40B1D2B2044B0548083233F8BD
:103D5C0012305B0B0B7008BD0248FCE79C00002086
:103D6C000000AD0B0400AD0B70B50F4C94F858600F
:103D7C00BEB90E4D4022314604F1100002F0EDFCAC
:103D8C00C5F87C610620D5F87C31FDF767FE4FF055
:103D9C000043C5F804330648012384F858306365A2
:103DAC0070BD0448FCE700BF9C0000200060004090
:103DBC000000AD0B0500AD0B034B93F85800003819
:103DCC0018BF0120704700BF9C000020014601482D
:103DDC00FFF7DABCEC00002001460148FFF7B0BC4D
:103DEC00EC00002037B50446FFF7ECFD08B3204685
:103DFC00FFF7F2FD0546E0B92046FFF7F7FD03B2E9
:103E0C009B0003F1804202F5C24203F1804303F5AB
:103E1C00C04315601268D3F8102542F00102C3F8B4
:103E2C00102521B1134A01238340C2F8043303B097
:103E3C0030BDE3B2104A083332F81330C3F38203B7
:103E4C00042B12D0052B12D001A8019402F096FA83
:103E5C00019BD0F81015D94001F001010231204628
:103E6C0003B0BDE8304002F0DCBA0321F7E70221D1
:103E7C00F5E700BF006000409C00002008B502463A
:103E8C00FFF7A0FDC0B11046FFF7A6FDA0B9104684
:103E9C00FFF7ACFD0B4A01238340C2F8083303B291
:103EAC009B0003F1804303F5C043D3F8102522F0A7
:103EBC000302C3F8102508BDBDE8084000211046D8
:103ECC0002F0AFBA0060004073B5C5B2174E0835AA
:103EDC00044636F81530DB0726D5FFF7CFFF204612
:103EEC00FFF770FD40B12046FFF780FD104B00F549
:103EFC00A270002243F820202046FFF79FFD0023EC
:103F0C0001A826F81530019402F038FA019B00EB59
:103F1C008300084BD0F80027134043F00203C0F88D
:103F2C000037054802B070BD0448FBE79C00002038
:103F3C0000600040F0F8FCFF0000AD0B0400AD0B7E
:103F4C002DE9F347534BD3F80403C0B240F00040C3
:103F5C00FFF79EFD051E1ADA4FF0A043DFF83881FB
:103F6C00D3F820250092C3F820250127009CA4B982
:103F7C004FF00040FFF78CFD4FF0A042D2F82035F7
:103F8C000093C2F82035002BEFD125F00045012419
:103F9C00002D66D102B0BDE8F08794FAA4F4B4FA0F
:103FAC0084F4E00804F1080304F0070238F81390D5
:103FBC001DF80030019407FA02F223EA02030DF80F
:103FCC00003001A802F0DAF9019B03F5E0734FEA27
:103FDC00990150F82360C9F3820A4B07D146C6F306
:103FEC00014623D520465146FFF70AFD01A801944E
:103FFC0002F0C4F9019B03F5E073F6B250F82330DC
:10400C00C3F301439E4207D10021204602F009FA76
:10401C003146204602F005FA01A8019402F0AEF9EF
:10402C00019B07FA03F3C0F820359FE7022E0CD151
:10403C000321204602F0F5F90AF00503012BEBD120
:10404C0049462046FFF7DCFCE6E70221204602F059
:10405C00E8F9BAF1030FF3D0032EDDD1BAF1020F58
:10406C00EDE795FAA5F3B3FA83F304FA03F29B0098
:10407C0003F1804303F5C04325EA0205D3F810058C
:10408C00D3F81015C0F30420C1F30141FFF7B8FCBD
:10409C007EE700BF006000409C00002008B5124B7A
:1040AC00A8220021184602F058FB032202610F4996
:1040BC0042610F4A8161C2614FF480620262002248
:1040CC0082624262C26201660A49416610218166BF
:1040DC00094902670346C266426711F8010D9854FC
:1040EC000132102AF9D108BD340800204A730000AF
:1040FC003609002026090020637300002DE9F84FD3
:10410C00DFF87C80182606FB008E00FB0666464412
:10411C00DEF82440DEF828C07368A44507468946BB
:10412C00154603EB040022D8DEF820B0ABEB040AF2
:10413C000AF1FF339A4203D802F001FB2C440FE042
:10414C0063449A4219D852462C4402F0F8FAB4EB64
:10415C000B0405D07068224609EB0A0102F0EFFA55
:10416C00182303FB078301205C62BDE8F88F0CF178
:10417C00FF3CACEB040C9445DED20020F5E700BF0D
:10418C0034080020034B182202FB00339A6A586A49
:10419C00801A70473408002003484FF0FF324FF06C
:1041AC00FF3300F051BA00BF44010020014800F079
:1041BC00C5BA00BF440100202DE9F04786B0044683
:1041CC0000AF0D464FF02003EFF3118883F31288F4
:1041DC00BFF36F8F02F0D2FA2D4B042C1E5896BFF2
:1041EC002C4B2D4B53F82430E9468AB06A462B49A8
:1041FC00D36140F2013393844FF0000A284BC2F88C
:10420C0020A0C2E9051442F8103F264853464FF44B
:10421C003151FDF761F8CD467DB1EB69C3F308036D
:10422C005BB1214B7B6102233B611E48534607F176
:10423C0010024FF48251FDF74FF82EB1304602F0C8
:10424C0023F908B1037803B91848E9468AB06A46DD
:10425C00174BD061C2E9053640F201331384154B7C
:10426C0042F8103F00230F484FF41151FDF734F87A
:10427C002946CD462046FFF72DF988F31188BFF368
:10428C006F8F3046FEF7D0F81837BD46BDE8F08783
:10429C0008000000F06A0000647300007A730000EC
:1042AC000500000198690000A27300007273000001
:1042BC00C373000004000001104B70B553F820408C
:1042CC00013053F82060A64200D870BDD4E9003507
:1042DC0095B153B12846984738B10028B8BF404231
:1042EC00EB68FF28A8BFFF201870EA68537843F0EA
:1042FC00010353700834E6E79847FBE7046B0000B2
:10430C0008B50A4B012203201A70FFF7D5FF00F005
:10431C00DBFF0420FFF7D0FF00F03AF9FCF74AF876
:10432C00034A137B23F00103137308BD360D0020E1
:10433C00C806002008B50348034A0021121A02F0EF
:10434C0096F808BD68010020380D002070B50023D8
:10435C0086B00122CDE90423194E1A4D01930F2288
:10436C00CDE902321849142303FB005506EBC016A5
:10437C0004464FF4C070154B00954FF4A07200FB2F
:10438C000411304600F098F8737B114AEE6023F06C
:10439C00040373734FF4046304FB033313446B6023
:1043AC000C4B2C74BFF35B8F53E8001F013143E8B7
:1043BC000012002AF8D1BFF35B8F06B070BD00BFAE
:1043CC0048060020E0080020C01800209964000076
:1043DC0080100020DC08002080B50020A6B0FFF77C
:1043EC006BFF2E4B83F308882D4D2E4E6B692E4F91
:1043FC0043F400736B610024E02385F82230EC77E2
:10440C002C766C76AC7685F820406B6A43F4E0230E
:10441C006B6285F82340FDF769FFFDF799FA4FF0C1
:10442C00FF33AB62EB62FEF7CFF8FEF713F8FCF745
:10443C00DBFD40F20113ADF8243006ABB360CDE9DF
:10444C001E44219402F007F80120FFF735FF0220EB
:10445C00164DFFF731FF00F031FC154B75610593DC
:10446C00012314490094CDE903434FF480623B4689
:10447C00CDE90144284600F01FF86A7B064622F07D
:10448C00040228466A7302F05BF82046FFF75EFFD1
:10449C003A4631462846FDF7C3FB00BFC018002042
:1044AC0000ED00E0E00800200D430000C8060020ED
:1044BC0025740000401A00202DE9F04385B0073226
:1044CC00994600F1580322F00706C0E91633109BF9
:1044DC00037306F140050423002743730D440F9B1F
:1044EC0083738846C0E9067729468760C7730446FC
:1044FC00FDF7C6FB08F140030730C4E9183620F07D
:10450C0007000E9BA06602930D9B01932D1A0C9B2A
:10451C0000932A464B4641462046FDF74FFB054B80
:10452C0067659B6803B1DB6EE366284605B0BDE8A2
:10453C00F08300BFE0080020F0B587B0002505959A
:10454C00109D04950F9D03950E9D0295DDE9127645
:10455C000D9D01950C9D00950446FFF7ADFFB6F13E
:10456C00FF3F08BFB7F1FF3F05D056EA070305D15F
:10457C00204600F023FB204607B0F0BD03493A4625
:10458C00334604F1180000F003FDF4E7D565000094
:10459C002DE9F043294C2A4D87B02646AE4204F152
:1045AC002C040FD300F05AFB244CDFF898904FF4F6
:1045BC00004640F2E737AC4220D307B0BDE8F043E9
:1045CC0000F060BB54F8043C059354F80C3C049385
:1045DC0054F8103C039354F8143C029354F8183CD0
:1045EC00019354F81C3C009354E9092354E90B0142
:1045FC00FFF762FF54F82C3C5E65CEE7636A5A1CE9
:10460C000DD023EAE37300213846C3FB060151EABF
:10461C00C333D4F8008004D1404600F0CFFA2C34D8
:10462C00C9E74FF47A720023FBF752FD02460B46A2
:10463C0008F11800494600F0ABFCF0E750690000A7
:10464C0050690000D56500002DE9F341044617467A
:10465C001E464FF02003EFF3118883F31288BFF34B
:10466C006F8FC368334A7BB180689168884219D0D8
:10467C0057EA060318D188F31188BFF36F8F6FF0D8
:10468C000F0002B0BDE8F081916891F90E10216124
:10469C000133E3609368A36088F31188BFF36F8FD5
:1046AC000020EEE72169F2E791F90E1090F90E3037
:1046BC009942A8BF19466FF07E029142B8BF1146CD
:1046CC008B422EDD01F0EEFE0546CDE900761A4850
:1046DC002246414600F0FCF90028E1D04FF02003BF
:1046EC00EFF3118683F31288BFF36F8FA068D0B1FC
:1046FC00236821699C420AD04BB193F90E30994240
:10470C00A8BF19466FF07E039942B8BF194601F055
:10471C00C9FE40B10848314600F03EFA6FF00A007D
:10472C00AFE70025D1E7002DF4D186F31188BFF354
:10473C006F8FF3E7E0080020370D002038B5836851
:10474C0004466BB3194A926893422CD1C368012B6F
:10475C0003D9013BC360002038BD4FF02003EFF3B9
:10476C00118583F31288BFF36F8F0169806801F0A4
:10477C0099FE204601F043FFA06058B190F90E203D
:10478C0022610022826701F0DBFE0948294600F015
:10479C0003FAE0E7E06085F31188BFF36F8FDAE787
:1047AC006FF01500D8E74FF0FF30D5E7E008002098
:1047BC00370D002038B504464FF02003EFF3118578
:1047CC0083F31288BFF36F8F01F019FF48B10022F9
:1047DC00826701F0B5FE29460748BDE8384000F075
:1047EC00DBB9D4E902329A4218BF0133A36085F3D6
:1047FC001188BFF36F8F38BD370D002013B54FF004
:10480C002004EFF3118184F31288BFF36F8F846857
:10481C0044B1013C846081F31188BFF36F8F002099
:10482C0002B010BD52EA030406D181F31188BFF324
:10483C006F8F6FF00F00F3E7CDE9002302460248BB
:10484C0000F046F9ECE700BF370D0020C3897F2B41
:10485C0012D80A4B1B6863B1094B90F90E201B68E8
:10486C009A4209DB437BDB0606D1064BC31A18BF01
:10487C00012303F0010070470023FAE70809002028
:10488C000409002048060020044BC01A044BC01039
:10489C005843044B01221A54704700BF48070020AC
:1048AC00ABAAAAAA370D002070B50E4B0E4C1E7C7D
:1048BC0006EB460304EBC3040546204601F0D1FE8B
:1048CC000A4B002228469A55FFF7C0FF48B1084B07
:1048DC0008491A68013A2046D317BDE8704000F029
:1048EC0057BB70BDE008002048070020370D0020A2
:1048FC00080900209548000038B50D4D2B4653F89B
:10490C00184F9C4200D004B9EC68AB6838B95A7B9C
:10491C00D20604D1A26912B9DA897F2A05D89C4241
:10492C0002D02046FFF7C0FF23466B6138BD00BFA5
:10493C00E008002070B590F90D20437B002A014659
:10494C0004DA03F07F03437301F0C0FD4B7B154A7F
:10495C0063F07F0310464B7350F8183FD4698342C1
:10496C0008BF002323B9C1E900042160D1610CE028
:10497C0091F90E5093F90E60B5420ED0AE420CDD9B
:10498C005868C1E90030016059609068431A584278
:10499C00BDE870405841FFF7AFBF9C42E3D01B68A5
:1049AC00E0E700BFE008002070B490F90D30427BC6
:1049BC00002B29DBD30627D183692BBB134962F06B
:1049CC007F0242730A4652F8184F944218BF23468E
:1049DC00CC6923B9C0E900242060C8610CE090F9CF
:1049EC000E5093F90E60B5420AD0AE4208DD5A68FB
:1049FC00C0E900321060586070BC0020FFF77CBF2B
:104A0C00A342E7D01B68E4E770BC7047E0080020C5
:104A1C0008B590F90D20437B002A014604DA03F017
:104A2C007F03437301F052FD044B9868431A5842BC
:104A3C005841BDE80840FFF75FBF00BFE008002009
:104A4C0070B515461C46064601F052FDB4F1FF3F09
:104A5C0008BFB5F1FF3F08D02A46234606F11800DF
:104A6C000249BDE8704000F093BA70BDD5650000F6
:104A7C0038B54FF02003EFF3118583F31288BFF3A1
:104A8C006F8F104B104A9C681068A04206D1FFF73C
:104A9C000BFF85F31188BFF36F8F38BD00211B7C92
:104AAC0011600A4AD35C002BF3D02046FFF7CEFEF0
:104ABC000028EED0637BDB0602D12046FFF73AFFDD
:104ACC002046E4E7E008002000090020370D002014
:104ADC0070B50C480C4D86682E600C461146DDE90D
:104AEC0004234FF02006EFF3118586F31288BFF3F1
:104AFC006F8F8068FFF7A4FF2046BDE87040FDF77C
:104B0C0001B800BFE008002000090020F8B50446F9
:104B1C004FF02003EFF3118683F31288BFF36F8FEE
:104B2C00437BDA0649B219D18569BDB903F07F031D
:104B3C00437301F0CBFC437B164A817363F07F0314
:104B4C004373134653F8180F984218BF0546D069A3
:104B5C005DB9C4E900300460D46111E0A173002098
:104B6C0086F31188BFF36F8FF8BD95F90E70B942BB
:104B7C000BD08F4209DD6B68C4E900531C606C607C
:104B8C000120FFF7B9FE0120EAE7A842E1D02D6829
:104B9C00DEE700BFE008002049B9EFF3058030B92B
:104BAC00054B5A699B689A4201D0FCF7ABBF81F365
:104BBC001188BFF36F8F7047E008002010B54FF0DD
:104BCC002002EFF3118482F31288BFF36F8F427BC4
:104BDC00510704D484F31188BFF36F8F10BD22F0FA
:104BEC0004024273FFF7E0FE21460248BDE8104084
:104BFC00FFF7D2BF380D002070B50446183001F015
:104C0C0030FD4FF02003EFF3118683F31288BFF3CE
:104C1C006F8F94F90D20637B002A05DA03F07F0374
:104C2C006373204601F052FC0B4D637BA86843F084
:104C3C0010036373031B58425841FFF75DFE86F364
:104C4C001188BFF36F8FAB68A34203D1BDE87040EE
:104C5C0001F0FDBC70BD00BFE00800204FF0200348
:104C6C00EFF3118183F31288BFF36F8F044B9A68B3
:104C7C00D37B013BD37381F31188BFF36F8F7047E4
:104C8C00E008002010B54FF02003EFF3118483F3FC
:104C9C001288BFF36F8F084B9A68D37B0133D373A1
:104CAC000020FFF729FE84F31188BFF36F8FBDE856
:104CBC00104001F0CCBC00BFE0080020024B03F117
:104CCC001802C3E906227047E0080020F8B54FF03F
:104CDC002003EFF3118583F31288BFF36F8F19490B
:104CEC008868437B03F07F03437301F0EFFB8B6811
:104CFC005A7B084662F07F025A7350F8182FCC6921
:104D0C00824208BF002222B9C3E900042360CB61B0
:104D1C000CE093F90E6092F90E70BE420ED0B742C1
:104D2C000CDD5168C3E900210B6053600120FFF7D3
:104D3C00E3FD2846BDE8F840FCF7E4BEA242E3D010
:104D4C001268E0E7E008002050EA01032DE9F04189
:104D5C0005460E4603D1FFF7B9FF00202CE0831C5B
:104D6C0071F1FF332ADB01F092FC2C184FF0200379
:104D7C00EFF3118883F31288BFF36F8F114F124B2F
:104D8C00B8681860FFF744FEB86810492A463346E5
:104D9C00183000F0FDF8BA68537B43F010035373DE
:104DAC004046FCF7AFFE01F072FC201A63EB0303E4
:104DBC00012873F10003D0DBBDE8F0816FF0010432
:104DCC00241AD3E7E008002000090020D565000074
:104DDC00B1F1FF3F08BFB0F1FF3F08B506D1084B5A
:104DEC009868FFF709FF4FF0FF3008BDFFF7ACFFE5
:104DFC004FF47A7380FB0303C00B40EA4340F4E7A3
:104E0C00E0080020014B9868704700BFE0080020C4
:104E1C002DE9F04104464FF02003EFF3118683F3A4
:104E2C001288BFF36F8F037BD9070BD586F31188DC
:104E3C00BFF36F8F404080F311884FF0040002DF06
:104E4C00BDE8F081437B1A0704D586F31188BFF3C4
:104E5C006F8FF5E723F0200242F00801D20920D130
:104E6C004173A36813B1204601F038FB04F118001C
:104E7C0001F0F7FB04F158074FF00008A56DBD4297
:104E8C0000D0B5B90120FFF737FD104B9B68A3424A
:104E9C00DBD1EFF30583002BD7D13046FCF732FE84
:104EAC00D3E703F05F0343F00803437301F00EFBF9
:104EBC00D7E7284601F012FB05F1180001F0D1FBF1
:104ECC00C5F878802846FFF76FFDD7E7E00800208B
:104EDC0008B50648064A0749121A01F0CAFABDE895
:104EEC000840054A0549064801F0C3BA00000020F5
:104EFC006801002068750000000000006875000063
:104F0C0000000020034B1B680BB9FEF7D9BA002038
:104F1C00704700BF0C09002010B50E4B1C689C425A
:104F2C0004D1FFF7EFFF6FF0004010BDFFF7EAFF71
:104F3C00002CF8D0D4E904321B1A62EBE072B3F106
:104F4C00004F72F10001EEDA002AACBF18460020C7
:104F5C00EBE700BFF800002030B570B10B4B5B687D
:104F6C0098420AD0036843B1D3E90421D0E904453F
:104F7C00121941EB0501C3E90421D0E90032136099
:104F8C005A600023C0E9003330BD00BFF800002098
:104F9C00B3F1FF3F08BFB2F1FF3FF8B504461D4621
:104FAC0016465CD081604FF02003EFF3118783F33A
:104FBC001288BFF36F8F013275F1FF3324DA2D495C
:104FCC00D1E900206FF001039B1A4FF0FF3262EB26
:104FDC0000009E1B60EB0500012E70F1000301DA4E
:104FEC0001260020C4E90460234ED6F800C0756881
:104FFC00B44508BF4FF0000CBCF1000F0DD1C4E953
:10500C0000652C6074601CE0FFF77CFF013645F1F5
:10501C000005361845EBE070E4E7DCE90420D4E940
:10502C000431934271EB000E1ADAD21ADCF8043018
:10503C0060EB0100CCE90420C4E900C31C60CCF88F
:10504C0004403368B34206D09C4204D1FFF764FF9E
:10505C000021FEF701FA87F31188BFF36F8FF8BDBB
:10506C009B1A61EB0001AC45C4E90431C7D0DCF8F4
:10507C0000C0C1E760070020F80000202DE9F84FC0
:10508C004FF02003EFF3118C83F31288BFF36F8F73
:10509C00DFF8B0A0DFF8B0902C4FC9F80000DAF8B8
:1050AC0000000024504508BF00200025D7E900214E
:1050BC00D9F80030E04680B3D0E9046C4FEAE37EC7
:1050CC00B3427EEB0C0B05DAF61A6CEB0E04C0E95E
:1050DC00046422E0B21841EBE671C0E90445C7E96B
:1050EC000021FFF739FF88F31188BFF36F8F8368B6
:1050FC0098474FF02003EFF3118883F31288BFF326
:10510C006F8FD9F80030DAF800009B1B5045C4466D
:10511C00C9F80030CAD1D7E900219A1841EBE373E2
:10512C000024C7E90023C9F80040FFF7F5FE21462B
:10513C00FEF792F988F31188BFF36F8FBDE8F84F33
:10514C00FFF796BCF80000200C0900206007002037
:10515C0010B54FF02003EFF3118483F31288BFF3E3
:10516C006F8FFFF7CFFE064A0346D2E900011818ED
:10517C0041EBE37184F31188BFF36F8F10BD00BF57
:10518C0060070020F8B504464FF02003EFF31187B9
:10519C0083F31288BFF36F8F026822B187F31188F3
:1051AC00BFF36F8FF8BDD0E90A36581C46F10001E9
:1051BC00022871F1000127D3012B76F10001BCBF4D
:1051CC00012316465D1E46F1FF3601F064FA0130EC
:1051DC0041F10001401946EB0101012871F1000178
:1051EC003ADB01F058FA013041F100016FF0010295
:1051FC00401946EB0103121A4FF0FF3161EB030328
:10520C0018492046FFF7C4FE236B01332363236A3E
:10521C0073B187F31188BFF36F8F236A20469847C9
:10522C004FF02003EFF3118783F31288BFF36F8FD6
:10523C0054F8185FA542B1D0002DAFD0284601F02C
:10524C008FF90023AB6787F31188BFF36F8F284664
:10525C00BDE8F84001F074B96FF001024FF0FF3374
:10526C00CEE700BF915100002DE9F047B3F1FF3FAD
:10527C0008BFB2F1FF3FDDE9086705461C469146C1
:10528C0098461CD0531C74F1FF3309DB012A74F1CE
:10529C000003BCBF0122002412F1FF3944F1FF3896
:1052AC00284601F0DEF9C5E90A6700232B634A465C
:1052BC00434628460349BDE8F047FFF769BEBDE801
:1052CC00F08700BF91510000014800F0CDBA00BF3B
:1052DC002D7400000CB430B589B005460C461C2268
:1052EC00002101A801F039FA02238DF806300E4B8B
:1052FC000293059523462CB1B4F1004F28BF4FF013
:10530C000043013B1D440DAA0C99069501A800927F
:10531C0000F00CF814B1059B00221A7009B0BDE81E
:10532C00304002B0704700BF776700002DE9F04FA6
:10533C008BB04368019383789F078246144640F1F3
:10534C000981002591F80080B8F1000F00F004816C
:10535C00B8F1250F0BD04B1C02930135019B514624
:10536C00404698470028C0F2F5800299EAE791F888
:10537C0001808B1CB8F1250F0293EED000239946C7
:10538C001F461F2F39D8A8F12002102A0AD8DFE8AF
:10539C0002F02B0909310909092109090929092EEA
:1053AC0009091F00A8F13002092A32D9B8F12A0FD5
:1053BC0035D1780654F8042B00F18180002AA7BF60
:1053CC0047F020079146C2F1000947F0280701E099
:1053DC0047F00107029A12F8018B0292B8F1000F04
:1053EC00CFD132E047F0020747F00407F2E747F06D
:1053FC000807EFE747F01007ECE77F2F18D8A8F164
:10540C003002092AD2D87E0603D50A2101FB0323D8
:10541C00E0E70A2101FB092947F02007DAE7B8F198
:10542C002E0F05D1790600F1978047F04007D1E7A0
:10543C00B8F16C0F32D02AD8B8F1680F35D0B8F16A
:10544C006A0F39D0B8F14C0F36D0002B48F020023F
:10545C00B8BF27F04007A2F16501BCBFBFB2002363
:10546C00022901D9612A2CD1073424F007049A4E61
:10547C0008344FF00708380763D506EB080B37469E
:10548C005F4560D1AE1B3744A9EB080954E1B8F174
:10549C00740F9FD0B8F17A0F9CD0D6E73A0648BF6C
:1054AC0047F4007747F0800794E7FE0548BF47F4C0
:1054BC00007747F480778DE747F420778AE7134627
:1054CC0088E7A8F16301122900F2CF80DFE811F020
:1054DC0013004800CD00CD00CD00CD004800CD001C
:1054EC00CD00CD00CD00CD00DF00C700CD00CD003C
:1054FC001B00CD00960054F8043B8DF81C304FF087
:10550C00010807AEB7E754F8046B744A002E08BFC5
:10551C00164617F0400F14BF19464FF0FF313046B6
:10552C0001F0E5F88046A6E7019B514620209847FC
:10553C0000280FDB013FB845F6D34D44ED1BB946AF
:10554C009BE74F46F7E717F8010B019B514698472D
:10555C00002895DA4FF0FF3528460BB0BDE8F08FE8
:10556C00390637D5BA0545BF073424F0070454F87B
:10557C00040B54F8080B27F010060028B6B232DAE8
:10558C00404246F48066039307AF0A22394601F085
:10559C00BAF87206039BA0EB07074BD526F0010166
:1055AC00BB4289B240F38A80B8F1000F00F08280D0
:1055BC0016F01002039240F083809B460E4640F298
:1055CC00064116EA010203921EBF00220BF1010BE9
:1055DC00039238E0FE0554F8040BCCD5B9054CBF4A
:1055EC0040B200B2C7E7CED17A06CCD5002BCAD1D7
:1055FC0027F01107BEB21F469B46E0E727F01007C5
:10560C00BFB20A223E0646D5B80545BF073424F082
:10561C00070454F8040B54F8080B002844D127F065
:10562C0016067906B6B242D5002B40D127F01707E3
:10563C00BEB21F4616F0100203924AD0B8F1000F0A
:10564C0045D107F1010B31075CD4F20705D5D945DB
:10565C0075DDA9EB0B02D319CB465A464CE047F04B
:10566C00100710224FF07808CCE7782A06D1B8F151
:10567C00580F14BF10224FF40472C3E7019B51461C
:10568C00252098470028FFF665AF023566E608220C
:10569C004FF00008B6E7F90554F8040BBDD5BE056C
:1056AC004CBFC0B280B2B8E727F00607BEB2039376
:1056BC0007AF6BE726F01106B6B29DE70E46B9E7C9
:1056CC0038460E461F4607F1020B0746BBE7384625
:1056DC00F9E7BB4673E700BF5D7500005675000027
:1056EC00CDE904325146019B202098470028FFF653
:1056FC0031AF059A049B01329145F1DCA5EB0B010E
:10570C008D189346039A32B303935146019B302074
:10571C0098470028FFF61EAF039BB8F1000F10D17D
:10572C0001355E19711B8F4227DB3E460DF11C08BB
:10573C0066BB2F44A9EB0B093D46B94438E03B4608
:10574C008BE70393023551464046019B984700284E
:10575C00039BE6DAFEE640F206410E42E1D016F07B
:10576C00020F14BF2B20202016F4806F039305F139
:10577C000105514618BF2D20E7E7019B514630200B
:10578C009847002805F10105CCDAE3E6013E019BC0
:10579C0018F80600514698470028C9DADAE6019B4A
:1057AC00514620209847002805F10105FFF6D2AE9E
:1057BC00A9EB0503002BF2DCD7E500BF2DE9F04780
:1057CC0006460D46174698462BB398F8004093F8BA
:1057DC000190DB78A40004EB430498F802301C44DD
:1057EC0044444FF0000ACA4509D3D8F8042008F104
:1057FC00080339463046AC46BDE8F047604714F81C
:10580C00013B48F823402046FAF7CCFD0130044414
:10581C000AF1010AE7E76FF01500BDE8F08770B5F3
:10582C00002502462846144614F8013B0BB91846CD
:10583C0009E098B18D4207D1702B04D0A3F140023E
:10584C003A2A0BD8002070BDA3F140063A2E05D899
:10585C0053780135941C002BE9D00020252B08BF70
:10586C0080F001002246DEE70FB407B504A951F819
:10587C00040B019100F0BDFB03B05DF804EB04B028
:10588C00704700EBC100408840087047F8B50346EC
:10589C00FFF7F7FFB0FA80F0C0F11F0003EB800CAC
:1058AC00CA00DCF81060171D0C4606328DB256B9D2
:1058BC00012101FA00F0D9680143D960CCF81040FD
:1058CC00DD539D52F8BDF1000431585AD85303EB07
:1058DC00C0009E52C5805D52F4E7043A2DE9F041B8
:1058EC00CC1D114424F0070421F007010E1BF7080E
:1058FC00B7FA87F2C2F12405AD004FF00008073566
:10590C00C2F12002ED0804604146A760C4F80C8087
:10591C00920004F1100000F020FF6B0043F0010333
:10592C00638004EBC5027B1B5900A4F800805180F6
:10593C00A21924F83550A2F80280A35304EBC70334
:10594C0029465A8842F001025A802046BDE8F041AF
:10595C00FFF79CBF038B13F0070305D10368002BE3
:10596C000CBF002003207047022B05D1408BB0FAEE
:10597C0080F0400980007047012B05D10368002B93
:10598C000CBF0020052070470020704710B50C4656
:10599C0000B111B96FF0150010BD081D00F095F89D
:1059AC000028F9D1A368032BF6D9F3E72DE9F041D0
:1059BC000D4607461946281D90461E4600F096F8DF
:1059CC00044638B13346424629463846A446BDE81B
:1059DC00F0416047BDE8F08110B44FF02004EFF3C4
:1059EC00118284F31288BFF36F8F416110BC0121C7
:1059FC00FBF7C8B838B50C46054658B151B10B6821
:105A0C0043B14B6833B11C22002100F0A6FE2C617F
:105A1C00002038BD6FF01500FBE770B505460E464B
:105A2C00FFF7B4FF041E15DB4FF02003EFF31182D8
:105A3C0083F31288BFF36F8F6B8B2C8B4FF6FF7138
:105A4C008B4204F0070407D182F31188BFF36F8FE8
:105A5C006FF00A04204670BD022C0CD101336B830D
:105A6C0082F31188BFF36F8F0023224631462846FC
:105A7C00FFF79CFFEEE7062C14D8DFE804F00413C4
:105A8C001313041A0400002333606B683BB9C5E997
:105A9C000066ACB902212846FBF774F8DAE71E6001
:105AAC006E60F6E782F31188BFF36F8F6FF004041A
:105ABC00D0E782F31188BFF36F8F6FF08504C9E7CD
:105ACC0082F31188BFF36F8FC4E7034658B1426865
