:1000000048160020F91C0000F1690000CD1C00001A
:10001000CD1C0000CD1C0000CD1C00000000000025
:1000200000000000000000000000000019160000A1
:10003000CD1C000000000000C1150000CD1C000018
:100040009D1600009D1600009D1600009D160000E4
:100050009D1600009D1600009D1600009D160000D4
:10006000294800009D1600009D1600009D16000006
:100070009D1600009D1600009D1600009D160000B4
:100080009D1600009D1600009D1600009D160000A4
:100090009D1600009D1600009D1600009D16000094
:1000A0009D1600009D1600009D1600009D16000084
:1000B0009D1600009D1600009D1600009D16000074
:1000C0009D1600009D1600009D1600009D16000064
:0C00D0009D1600009D1600009D1600000B
:0400DC00FFFFFFFF24
:1000E00053B94AB9002908BF00281CBF4FF0FF319F
:1000F0004FF0FF3000F00CB8ADF1080C6DE904CE04
:1001000000F008F8DDF804E0DDE9022304B07047F0
:10011000704700BF2DE9F04786468C460846089E8A
:10012000154674461946002B40F0C2808542B2FA4B
:1001300082F245D94AB1C2F1200300FA02FC2EFA3C
:1001400003F3954043EA0C0C94404FEA154EA8B2D5
:10015000BCFBFEF8230C0EFB18CC08FB00F943EAAD
:100160000C43994528D9EB1808F1FF3704D299457B
:1001700002D9A8F102072B44A3EB0903A4B2B3FBF5
:10018000FEFC0EFB1C330CFB00F044EA0344A042CF
:1001900014D92C190CF1FF3304D2A04202D9ACF1CE
:1001A00002032C44241A43EA07401EB1D440002322
:1001B00034607360BDE8F0874746DDE76346F1E7EA
:1001C00092BB431B01214FEA154EAFB2B3FBFEFCBD
:1001D000200C0EFB1C330CFB07F840EA0343984548
:1001E00062D9EB180CF1FF3004D2984502D9ACF17A
:1001F00002002B44A3EB0803A4B2B3FBFEFC0EFBEE
:100200001C330CFB07F744EA0344A7424ED92C19D0
:100210000CF1FF3304D2A74202D9ACF102032C4403
:10022000E41B43EA0040C0E7C2F1200320FA03F1D7
:10023000954090402EFA03F303434FEA154EAFB2B8
:10024000B1FBFEFC0EFB1C10190C0CFB07F841EA7D
:100250000041884504FA02F422D969180CF1FF30F4
:1002600004D2884502D9ACF102002944A1EB08016F
:100270009BB2B1FBFEFC0EFB1C110CFB07F743EA23
:1002800001439F420ED9EB180CF1FF3104D29F427B
:1002900002D9ACF102012B44DB1B41EA004192E799
:1002A0006046E3E76146F7E76046A3E76346B7E7E2
:1002B000834206D916B9002108467BE7C6E900E06B
:1002C000F9E7B3FA83F78FB9834201D3724508D8AF
:1002D000BEEB020460EB030301209C461EB9002123
:1002E00068E73846FAE7C6E9004CF8E7C7F1200CA2
:1002F000BB4022FA0CF41C432EFA0CF120FA0CF34A
:10030000B84001434FEA14490EFA07F5B3FBF9F878
:100310001FFA84FE09FB18300B0C08FB0EFA43EAA7
:1003200000439A4502FA07F240D9E31808F1FF307A
:1003300004D29A4502D9A8F102002344A3EB0A0390
:1003400089B2B3FBF9F809FB183308FB0EFE41EA4A
:1003500003418E452CD9611808F1FF3304D28E4534
:1003600002D9A8F10203214443EA0040A0FB02980D
:10037000A1EB0E014145CE46434602D306D14D4581
:1003800004D2B9EB020E68EB04030138002EA6D0AC
:10039000B5EB0E0261EB030101FA0CFC22FA07F344
:1003A0004CEA0303F940C6E9003198E74046C5E747
:1003B0004346D9E710F8012B11F8013B012A28BF69
:1003C0009A42F7D0D01A7047034613F8012B002A3F
:1003D000FBD1181A013870472DE9F04F87B0054658
:1003E000039117461E46836804AA5B689847002855
:1003F00031DBDDE9044AA7FB04B307FB0A375846A3
:1004000019A3D3E900233946FFF76AFEDFF86080BD
:1004100002904FF0FF39D94578EB07031ED3A6FBB6
:1004200004B406FB0A4410A3D3E90023214658462E
:10043000FFF756FED94578EB040403460ED3029924
:10044000AA6899420DD3BDF840100091146828465F
:10045000DDE90221A04707B0BDE8F08F6FF085000D
:10046000F9E76FF01500F6E700CA9A3B00000000BC
:10047000FFC99A3B70B51748174C04F0ABFD2060DC
:1004800020B9164806F0D3F8002070BD144806F0D5
:10049000CEF82068836804211B689847014618B18C
:1004A000104806F0C4F8EFE70F48104C104D06F066
:1004B000BEF800F087F800F0E9F800F029F801260E
:1004C000236823B100F0AAF800232360F8E72E6028
:1004D000F6E700BFCC7B0000CC020020D27B0000FE
:1004E000DA7B0000E37B0000077C0000C8020020EC
:1004F00098000020B0F5A07F07D1044A13680133AB
:1005000003F0010348BF5B4213607047C80200203C
:1005100070B5234B93E8030088B003AC002584E852
:10052000030007231F49204805918DF81A30ADF8C4
:100530001850079506F07BF8032305998DF81930BC
:100540001A481B4B079305F0B1FD9DF81810194888
:1005500005F0ACFD05A9184A204604F033F92A46F7
:100560000621082000F0DAFF204606F039FD4FF49E
:10057000FA71204606F038FD064601460F4805F0A0
:1005800095FD0123009332462946204606F056FD8C
:10059000204604F03BF90A4806F049F808B070BD5F
:1005A000B07800000024F4002B7C0000497C00009F
:1005B0003C7C0000607C0000F5040000727C0000C0
:1005C000857C000010B505F0F3FF0F4C204606F0C7
:1005D00056FE28B921680D4806F029F8002010BD04
:1005E000A3680B491B6820469847021E04DA094895
:1005F000002106F01CF8F1E7074B04225A600C2298
:100600001A820120EBE700BF54760000927C0000C4
:10061000CE780000B67C00009C00002007B50C4896
:100620000C4983685B689847011E05DA0A4803B0E5
:100630005DF804EB05F0FBBF084B09491A886846D2
:1006400005F046FD684600F00DF803B05DF804FBC8
:10065000547600009C000020D87C0000E8040020B4
:10066000ED7C0000F8B50646FFF7AEFE064F0546E6
:100670000024AC4200DBF8BD315DBB6802485B681A
:1006800098470134F5E700BF4076000008B50748F9
:1006900006F0F5FD20B9064805F0C9FF002008BDA9
:1006A000044805F0C4FF0448F6E700BF40760000A8
:1006B000F17C0000087D0000147D00002DE9F04F62
:1006C00091B08407009302F004030293C2F3C203C3
:1006D00003F10103DDF86890039205460E46059389
:1006E00040F0BA81041D30B1072909D86FF01B0012
:1006F00011B0BDE8F08F01F00706341DC6F1080601
:10070000009B4FF00008591E4FF0040A4FF0FF33D2
:100710000193CDF810804746C34653460DB1009A69
:1007200022600598002800F3E8809848009A8242E9
:1007300003D397488242C0F0E080039AA4EB050EF1
:1007400092074FEA9E0000F103810F2F00F2B18063
:10075000002D00F0058107F140020DEB020C019A1B
:100760000CF8200C0CF8102C049801300490E7E0F1
:100770007A285DD84B280ED8472859D829282DD853
:10078000252852D054D820287AD02338D0F1000B15
:100790004BEB000B74E04C382E2849D8DFE800F012
:1007A0007048484848484848484848484B4848489E
:1007B000484848484859484B4B595959704B6D481F
:1007C0007048184B184848827F4B48484B487F0078
:1007D00000204FF0000B4FF0040A38E02A38C0B276
:1007E000012202FA00F010EA0E0F49D110F0625C0B
:1007F0002FD110EA020B43D06046013C5444B4FBB5
:10080000FAF40AFB04F4002D61D0A3EB050CA44418
:100810006645FFF46BAF002868D1042B47D159F827
:10082000043B2360043404232AE0019A013A019234
:100830004FF0000B24E011F8010C6C2834D111F8B2
:10084000023C00206C2B8346C5D14FF0080A53466A
:10085000D3E709F1070929F007090734F9E802ABE2
:1008600024F0070435B106982044B0423FF63EAF6D
:10087000C4E900AB08344FF0000B4FF0080A5346B0
:1008800011F8010F002878D0BBF1000F7FF470AF92
:100890002528F5D1019B013301934FF0010B4FF057
:1008A000040AECE7584694E700208346A5E7082BA6
:1008B00002D06FF015001BE709F1070929F00709BD
:1008C000F9E80223C4E9002308340823D8E768B90B
:1008D000042B02D109F10409A4E7082BE9D109F19D
:1008E000070929F0070909F10809EDE7059A013A16
:1008F000059259F8042B009210E7039A900720D52F
:10090000A4EB050E4FEA9E004FF0010CBEF5007FF0
:10091000CFD20F2FCDD8F5B107F140020DEB020E6B
:10092000C0B2019A0EF8200C0EF8102CBCF1000F8A
:100930003FF41AAF60F07F000EF8200C08F10108B8
:100940000137C5F10802043406924FF6DA7E97E7C4
:100950004FF0000CDAE7BCF1000F01D00136EFE7F1
:10096000029802360028EBD10098CDE90631FFF756
:100970002BFDDDE906310644E2E7631BB3F5806F2A
:1009800097D23DB9A6F10804E018B1E6A0750000C1
:10099000EC870000029A28609B082B709DF81030AD
:1009A000C2B1EB7085F80280B8F1000F05D008A83D
:1009B0000022C5F1010C97420ED1C5F101030DF1E2
:1009C00020094FF0000A01930DF1300B574512D169
:1009D000601B8DE66B70E5E710F8013B190608D542
:1009E00004EB0C0E764503F07F03FFF47FAE04F8B2
:1009F000013B0132DFE7B8F1000F03D099F9002085
:100A0000002A17DB029BD3B11AF80B2004F8012B44
:100A10000022019B981820448642FFF467AE99F8A3
:100A2000000004F8010B00990392204606F08FFDA8
:100A3000039A14440AF1010A09F10109C6E799F879
:100A4000002055F822300093029B45F82230009890
:100A5000FFF7BAFC421CDCE76FF00D0048E600BF70
:100A6000014B1860704700BFB000002080B50546FC
:100A70000E461746984605F0B1F8034606F086FD87
:100A8000DFF81890044649F80030424630463946AF
:100A9000A84754F8090001F0AFF900BF08000000B2
:100AA0002DE9F047058B04462807904611D402290A
:100AB00005F0070540F0CD80204605F02EFE78B108
:100AC0000138218B042811D8DFE800F0C3106D85B0
:100AD000950001290CBF45F0100545F02005258340
:100AE00088F31188BFF36F8FBDE8F08701F0070A24
:100AF000AA4500F0A6800027B9463E46A368002B11
:100B000000F0BD8041F00801218388F31188BFF314
:100B10006F8FA168002900F0BB800D68002900F0EC
:100B2000B780D1F80480334652462046C047002D96
:100B300076D02B6829461D46F0E701F007035A1FBF
:100B4000012A1BD8002221F00701062B276889B251
:100B5000C4E9002209D13B4603E0628B0132628383
:100B60001B68002BF9D141F002012183204605F0DA
:100B7000D4FD00287BD041F0200177E0042B0AD17E
:100B800021F0070189B22183204605F0C6FD10B18E
:100B900041F020012183218B01F0070AAA4550D0A2
:100BA0000027B946AAE7236921F0070141F00601B1
:100BB000062DD3F8009021832DD1B9F1000F40D03C
:100BC00041F00801218388F31188BFF36F8F3A4900
:100BD0002046C84729E021F00701236941F00401BC
:100BE00089B2042DD3F804902183E6D000273E4635
:100BF0004FF0040A82E721F00701236941F0050163
:100C000089B2052DD3F808902183D6D000273E461F
:100C10004FF0050A72E700273E464FF0060A6DE7DF
:100C20002B4687E7B9F1000FD1D14FF02003EFF346
:100C3000118883F31288BFF36F8F238B23F008038F
:100C40002383258BEA062ED525F01003238305F098
:100C500007056669218B002EBFF66FAF002327685A
:100C6000C4E9003321F0070141F001012183218B08
:100C700001F0070AAA454FF000097FF43FAF002FAB
:100C80009BD041F00801218388F31188BFF36F8F57
:100C9000002FC7D03D68394633465246204605F0FE
:100CA00068FD2F46F4E7AB067FF51AAF25F0200369
:100CB000238305F00705FFE69F67000002F03ABEB8
:100CC0002DE9F84F81462F480F4605F004FE0646F1
:100CD00070B92D4CDFF8B4A00546A0464FF0010BCB
:100CE000544507D3B9F1000F02D04FF0010AE5B91E
:100CF000BDE8F88F237B73B12368DB680BB1204616
:100D0000984723681B6943B9636804221968204621
:100D100000F0C8F801361034E2E720469847002872
:100D2000F2D00BFA06F31D43F4E7A94695FAA5F4B1
:100D3000B4FA84F40AFA04F3260108EB04146FEA07
:100D4000030B25EA0305237B63B158F806301B69C2
:100D500093B94644042273682046196809EA0B09CE
:100D600000F0A0F8002DE1D127B14FF4A4700021CC
:100D700004F01AFF4D46BAE7204698470028F1D103
:100D8000E7E700BFD802002090780000B0780000AC
:100D9000014B53F820007047DC78000008B503468B
:100DA00008462BB1044A136000F082FA002008BD07
:100DB0006FF01500FBE700BFB4000020054A0648AD
:100DC00000231370054A1360054A4FF40041136075
:100DD000FFF7E4BFEA040020D3680000D00200203F
:100DE000D402002070B50B4D297841B90120FFF7DE
:100DF00067FF094C094EB44202D301232B7070BD2A
:100E000063685B791BB1236820469B689847103460
:100E1000F1E700BFEA04002090780000B0780000FD
:100E200010B50446084805F056FD5CB1BFF35B8F72
:100E3000064B53E8001F013943E80012002AF8D19D
:100E4000BFF35B8F10BD00BFD0020020D402002092
:100E500070B50A4B0A4C1B680A4E05469847A860B5
:100E6000B44200D370BD63685B7923B1236829461F
:100E70001B68204698471034F2E700BFB4000020FA
:100E800090780000B0780000044A054B9B1AB1EB43
:100E9000D30F34BF52F8310000207047F0770000C4
:100EA00090780000084BC31A10B41B11446801333A
:100EB000237143689A7143681960436801225A712B
:100EC00010BC05F02ABD00BF907800002DE9F04F5E
:100ED00085B002AFD7E90EA93D6B04460E46934696
:100EE0009846BAF1000F33D0C7F80490CDF80090BF
:100EF00010217A6B53460020FFF7E0FB0146154AAC
:100F000004F007040BF0070BE40044EA8B1402EA38
:100F10004122144344EA055417350D4425F00705D2
:100F2000ADEB050D02ADBAF1000F07D0CDF8009082
:100F30007A6B534605F11000FFF7C0FB434622468B
:100F40003146284605F0ECFC0C37BD46BDE8F08F75
:100F50005146D4E700FE0F000EB403B503AB0146C3
:100F600053F8042B0448019301F026F802B05DF811
:100F700004EB03B0704700BF53690000CA0605D4F4
:100F80008B064CBF02490349FFF7E6BF704700BF1D
:100F9000627D0000617D00002DE9F04F89B09A4626
:100FA000DDE914739DF84CB00593169B179E0692CD
:100FB00004460D460493BBF1000F00F0858006F057
:100FC0000803079305F0AAFC06F002090246002870
:100FD00049D086492046FFF7BFFF8046B9F1000F90
:100FE00008D016F0440F40D181492A462046FFF729
:100FF000B3FF804406F0010353B17E4B7E4953F8A2
:101000002B207E4B2046002A08BF1A46FFF7A4FF7C
:1010100006F00803002B54D0794B7A4953F82B2063
:101020002046FFF799FF0546069B2BB176491A46E5
:101030002046FFF791FF0544BAF1000F05D0734930
:1010400052462046FFF788FF05444544002F49D10A
:10105000049B002B4FD1F30700F1C180314620469D
:10106000FFF78CFFB5E08046B8E7694B18680028A9
:10107000BFD0684B4FF47A791B68B5FBF3F54FF49A
:101080006161B5FBF0F300FB135509FB05F54FF06B
:101090003C0CB3FBF1F201FB1231B5FBF0FEB1FBEE
:1010A000FCF300FB1E550CFB131109FB05F5009129
:1010B000B5FBF0F55849CDE901E52046FFF74CFFB7
:1010C00097E706F00805AFE7BAF1010F06D1002F48
:1010D00065D1049B002B7CD000250CE0002FF8D0BC
:1010E0004E485DE04E484F493B46224605F06CFABB
:1010F000049B002B69D0DFF83081DFF83091049F2A
:101100003146102F204628BF1027FFF737FF4FF03A
:10111000000A554546DC059B49461A782046FFF7EC
:101120001BFF4FF0010A1AF0070F03D1414620467A
:10113000FFF712FF57453CD9059B494613F80A2093
:101140002046FFF709FF0AF1010ABAF1100FEAD1B0
:10115000374920464FF0000AFFF7FEFE5246059B36
:101160009A5C344B995C11F0970F08BF2E223249DC
:101170002046FFF7F1FE0AF1010ABAF1100F1DD067
:101180001AF0070F03D141462046FFF7E5FE574509
:101190005246E4D841462046FFF7DEFEEBE7204802
:1011A0005D46A0E741462046FFF7D6FE0AF1010A58
:1011B000AFE722492046FFF7CFFEC4E7059B3B443B
:1011C0000593049BDB1B049399D1BBF1000F7FF4C3
:1011D00042AF204609B0BDE8F04F05F0E3BB074A37
:1011E00005492046FFF7B8FE38E700BF697D0000DB
:1011F0006D7D0000EC780000FE830000647D00003F
:1012000000790000927D0000987D00009C7D000028
:10121000E0020020DC020020767D00006F69000003
:1012200053690000B91F0000A97D0000A17D0000E6
:10123000AB7D0000DC860000AD7D0000A77D0000D6
:101240002DE9F0410F884B688E6886B005460C4644
:101250009046C7F382175BB1144A9B1A43F3CF0140
:10126000002920DB2078C0F3C200FFF70DFE034603
:101270002146608851F8102B0197C2F34A22002AB8
:1012800001EB0204C0F30B1008BF00210022CDE9DE
:101290000408CDE90214009231462846FFF77CFE8F
:1012A00006B0BDE8F0810023E2E700BFF077000060
:1012B000074A00210123904206D8064A01B90123BA
:1012C0001360054B1860704740085B000121F2E78E
:1012D00040420F00DC020020E0020020014B01220E
:1012E0001A707047EB040020014B00201960704712
:1012F000F8020020024B034801221A7005F052BB8D
:10130000EC0400203079000010B5064B18680C463C
:10131000FFF73EFD21460346BDE8104002480F227C
:10132000184700BFF802002030790000F8B5194DC9
:1013300007460E46042432463946002003F0C0FD1D
:10134000C8B101232B70144B1B782BB93046F8BD64
:101350005CB92C704FF0FF34002003F021FE002810
:10136000F4D02B78002BF3D1F0E7013C41F2883028
:1013700005F080FFF0E72B7813B1013C04D12C700D
:101380002B78002BD7D1E1E741F2883005F072FFCE
:10139000F6E700BFEB040020EC040020014B002026
:1013A0001960704710030020024B034801221A7095
:1013B00005F0F8BAEF0400205C79000010B5064B88
:1013C00018680C46FFF7E4FC21460346BDE81040D0
:1013D00002480F22184700BF100300205C7900006C
:1013E000F8B5074F0D4604464618B44201D12846C9
:1013F000F8BD14F8011BBB6801485B689847F4E727
:1014000040760000014910220A60704710ED00E0AC
:1014100072B6404080F31188BFF36F8FBFF34F8FD8
:1014200030BF62B6BFF36F8F704700BF72B64940DE
:1014300081F31188BFF34F8F20BF80F3118862B60C
:10144000704700BF70B5064686B00D46002938D0FB
:101450008B6805934B6804930B68039300241C4B23
:101460001C490293012223462046CDE9004405F0A1
:10147000A7FA6B6905932B690493EB680393164BEA
:1014800014490094CDE9014301222346204605F08A
:1014900097FAEB690393114B0E490094CDE9014390
:1014A00001222346204605F08BFAAB6903930C4BCF
:1014B00008490094CDE9014301222346204605F066
:1014C0007FFA2946304606B0BDE8704003F0ACBD57
:1014D000FA7D000078780000297E0000587E000028
:1014E000677E000040B2002807DB044A410901235F
:1014F00000F01F00834042F82130704700E100E017
:10150000054B420900F01F0053F82220012303FA83
:1015100000F01040704700BF00E100E040B200283A
:10152000A8BF00F1604001F10101B8BF064B4FEACE
:101530004111ACBF00F5614000F00F00C9B2B4BF6B
:10154000195480F80013704714ED00E030BFFFF726
:10155000FDBF00BF0B4A08B50B4B22F07F029A601B
:10156000BFF34F8FBFF36F8FD3F8882022F4700240
:10157000C3F8882003F0FCFD04F096FB00F0B0FBFC
:1015800003F044FE0000000000ED00E0094A0A49B3
:10159000936809689967094958674B6843F0805315
:1015A0004B60002383F31188BFF36F8F9368986FAC
:1015B000704700BFB80400209C7B000000ED00E0F5
:1015C00012498A684FF030001044EFF3098C80E82C
:1015D000F01F202080F31288BFF36F8F0C4F4FF065
:1015E00000664A698A603E604FF0700414192068F2
:1015F000084C2060506F0023536780F3118802F17C
:10160000300090E8F01F8CF309887047B804002080
:1016100004ED00E0140300201EF0040F0CBFEFF3F4
:101620000880EFF30980816911F8021C0229FFD0BC
:1016300001B505F0D5F901BD42F8203C009B42F808
:101640001C3C0A49019B42F8183C029B42F8143C9E
:1016500021F001014FF0807342F8043C42F8081C6D
:101660000023203A02654367704700BF6D0A0000FF
:10167000084B9860084B006F1860104681F309888A
:10168000002163B681F31188BFF36F8F002200231E
:10169000FFF7ECF9B80400201403002001B5EFF3C4
:1016A0000580A0F110004FEAC0000449014409C9B7
:1016B0009847BDE80140024908470000B87600009D
:1016C00021170000114B124A2DE9F041D518DFF81F
:1016D0004480013DB5FBF3F55D430F4B08EB03047C
:1016E000013CB4FBF3F403FB04540E1B07460B4907
:1016F000304605F02CFF701942460021083E05F0E7
:1017000034FF3E6704F10800BDE8F08101000000ED
:10171000000000000400000004000000B078000099
:10172000044B99685869884203D003494FF08052AE
:101730000A607047B804002004ED00E0F0B585B001
:101740000024414B0293CDE90044234607460E4650
:1017500001223E49204605F052F93D4B9B6ADD06C9
:101760006FD53C4B39490094CDE9014320462346CF
:10177000012205F044F91120354B9B6A1C070AD55C
:10178000354B029300231846CDE900332F4901223F
:1017900005F035F912202E4DAB6A99071FD50024AC
:1017A0002E4B029301222346CDE9004427492046CF
:1017B00005F025F96B6BAA6A12060FD50393284B27
:1017C00022490094CDE9014301222346204605F039
:1017D00016F91FB1AB6A23F08003AB6213201C4BD8
:1017E0009B6ADD070AD51F4B029300231846CDE9FB
:1017F00000331649012205F002F91420144B9B6AAC
:101800009C060AD5184B029300231846CDE90033F5
:101810000E49012205F0F3F815200D4B9A6AD10606
:1018200058BF9A6A9A6A920642BF5A6A22F40052D4
:101830005A629A6A42F0FF029A620023337005B03E
:10184000F0BD102098E700BF957E0000787800007A
:1018500000ED00E0AB7E0000DE7E0000F17E0000C7
:10186000097F00001F7F00003E7F0000F0B585B0BB
:101870000024434B0293CDE90044234607460E461D
:1018800001224049204605F0BAF83F4B9B6ADB0431
:1018900065D53E4B3B490094CDE9014320462346A4
:1018A000012205F0ACF81720374B9B6A1D050AD5BD
:1018B000374B029300231846CDE90033314901220A
:1018C00005F09DF81820304DAB6A9C051FD500240B
:1018D000304B0293012223462046CDE9004429499A
:1018E00005F08DF8AB6BAA6A10040FD503932A4B51
:1018F00024490094CDE9014301222346204605F006
:101900007EF81FB1AB6A23F40043AB6219201E4B73
:101910009B6A59050AD5214B029300231846CDE94D
:1019200000331849012205F06AF81A20164A936A12
:1019300013F4807315D01A4B029300231846CDE997
:1019400000331049012205F05AF81B200E4A936A11
:1019500043F47F4393620023337005B0F0BD16203B
:10196000A2E7926A9204F1D50E4A06490093CDE9A6
:1019700001321846012205F042F81C20E6E700BFBC
:101980006D7F00007878000000ED00E0837F0000AC
:10199000DE7E0000947F0000AD7F0000C27F00006B
:1019A000DD7F00003E7F00001FB50024374B02930F
:1019B00001222346CDE900443549204605F01FF8B1
:1019C000344B9B6A9A015ED5334B31490094CDE983
:1019D000014320462346012205F011F81E202D4B1D
:1019E0009B6ADB010AD52D4B029300231846CDE9F3
:1019F00000332749012205F002F81F20254B9B6A7E
:101A00001C030AD5264B029300231846CDE9003368
:101A10001F49012204F0F3FF21201E4B9B6A59034A
:101A20000AD5204B029300231846CDE9003318490C
:101A3000012204F0E4FF2220164B9B6A9A030AD588
:101A4000194B029300231846CDE9003310490122B7
:101A500004F0D5FF23200F4B9B6ADB030AD5134B01
:101A6000029300231846CDE900330949012204F00E
:101A7000C6FF2420074A936A6FEA03436FEA1343C1
:101A8000936204B010BD1D20A9E700BFF57F0000E0
:101A90007878000000ED00E00D800000208000005C
:101AA0003A800000588000007D8000009780000090
:101AB0002DE9F041754B5F6890B00446C7F3080606
:101AC000002383F31188BFF36F8F02F07F40B0F1E2
:101AD0007F4F0CD102F00C00082819D16C4A6D49D7
:101AE0000093CDE901321846012204F088FF002559
:101AF0002C464FF00008F31E8DF81F80092B00F2D2
:101B0000AB80DFE803F00B9FA39BA9A9A9A9A9A714
:101B1000120746BF0C461D460125EAE75E4B5D49AC
:101B20005A4FCDF80080CDE90183002301221846E9
:101B300004F065FF8DF81F80FE6A16F0020605D0DE
:101B4000564BCDF80080CDE9018306E0FB6A002BFF
:101B50000BDA534B0096CDE9016300234D49012276
:101B6000184604F04CFF00223AE0FB6A5B00FAD50D
:101B70004C4B48490096CDE901630122334630467B
:101B800004F03DFF7B69A26943F480737B61BFF37E
:101B90004F8FBFF36F8F7B6932F8022C23F4807371
:101BA0007B61BFF34F8FBFF36F8F4DF602739A4285
:101BB00009D0BB6ADBB2002B32D00DF11F0101202E
:101BC000FFF7BCFD3CE023680393374B3149009697
:101BD000CDE9016301223346304604F010FF22684C
:101BE0009DF81F30CBB908AE04F12007206861686A
:101BF000334603C30834BC421E46F7D10F9B002D69
:101C00003ED0C3F3080121B96FEA53236FEA43239F
:101C10000F9308A91046FFF715FC10B0BDE8F0813E
:101C2000BB6A13F47F4F05D00DF11F010120FFF7B0
:101C30001DFE05E0BB6AB3F5803F94D3FFF7B4FE09
:101C40000246CDE70DF11F010020B9E70DF11F019C
:101C50000020ECE7154B74E7154A164B0D4917F4B5
:101C6000F87F18BF1346103ECDE90336124B02939E
:101C70000023CDE900330122184604F0C0FE72E7CC
:101C800023F4FF7323F00103C2E700BF00ED00E07F
:101C9000F0800000787800001B8100003281000095
:101CA0005381000061810000808100009C81000060
:101CB000D7800000C2800000C0810000024A536942
:101CC00043F010035361704700ED00E0EFF308802C
:101CD000EFF3098101B57246FFF7EAFE01BD00BFCF
:101CE000044800232021C2180133272B82F8001357
:101CF000F9D1704700E100E0002080F31488BFF3C1
:101D00006F8FFEF7DBFF00200D490860BFF34F8F98
:101D10000C4880F3088800F03DF8202080F31188FB
:101D200009484FF40061401880F30988EFF31480EC
:101D30000221084380F31488BFF36F8FFFF70AFC7A
:101D400094ED00E04816002008090020BFF34F8FF3
:101D50000549064BCA6802F4E0621343CB60BFF347
:101D60004F8F00BFFDE700BF00ED00E00400FA0563
:101D70000749D1F890200023C2F307221846934266
:101D800000DB7047C1F89830C1F8A0000133F6E7D6
:101D900000ED00E008B572B6002383F31388FFF767
:101DA000E7FF144B4FF0FF32C3F88020C3F88420C4
:101DB000C3F88820C3F88C20C3F89020C3F894207F
:101DC000C3F89820C3F89C20C3F88021C3F884216D
:101DD000C3F88821C3F88C21C3F89021C3F894215B
:101DE000C3F89821C3F89C2162B6BFF34F8FBFF3AD
:101DF0006F8F08BD00E100E0084B9B6883420BD168
:101E0000EFF3058343B1064B5A6842F080525A60A3
:101E10005A6A22F400425A6203F0E6BEB804002077
:101E200000ED00E0024B034A0348012100F076B8C0
:101E300000000120000000206C790000F0B5284E61
:101E400085B000258D4215DA4468002C45D0D3B109
:101E500004F1FF3C14EA0C0F0FD0224B03950293C0
:101E600000230122CDE900331F49184604F0D7FDB5
:101E70006FF01502104605B0F0BD1F2CEDD90768B4
:101E80001CEA070FE9D1202C0768D0F808C05FFAD8
:101E900082FE10D9B4F1004F0FD8013CB4FA84F49B
:101EA000C4F11F046400BEF1070F4CEA040C06D90C
:101EB0000E4B0392D3E70824F5E73E24F3E727F01F
:101EC0001F04144344F01004C6F89820C6F89C4040
:101ED0004CF00104C6F8A040013201350C30B1E7E6
:101EE00000ED00E0D781000070780000FA8100006A
:101EF000044B0522C3F89420BFF34F8FBFF36F8FBD
:101F0000704700BF00ED00E0BFF35F8F024B00227F
:101F1000C3F89420704700BF00ED00E010B5034CFB
:101F200001232278FFF78AFF207010BDF004002003
:101F300014490868082810B521D8FFF7E5FF124CAE
:101F400049680022904201F10C0105D10F4B187035
:101F5000FFF7CEFF002010BDC4F8982051F80C3CCC
:101F600023F01F03134343F01003C4F89C3051F8CF
:101F7000043C43F00103C4F8A0300132E2E74FF023
:101F8000FF30E8E77C79000000ED00E0F00400207D
:101F900008B5024B1B689847002008BD18030020B5
:101FA000034B044A1860937843F002039370704720
:101FB00018030020B8000020F0B587B007460E4691
:101FC00014460021102268461D4605F0CEFA022371
:101FD0008DF802302A46054B019321466846CDE92B
:101FE000047604F09DF807B0F0BD00BF3F6A000022
:101FF00008B50649064821F00701C1F1005202F573
:10200000803204F04DFB002008BD00BF5B160020AD
:1020100048160020044A0123C2F840354FF08042A0
:102020000020C2F87835704700E0014020B1034B32
:10203000800143F001031847704700BFC0780000DB
:10204000054B0122C3F8002590F8761009B1DA603B
:1020500070471A605A607047007000407FB50D7974
:1020600005F01F04072C25D80A780B2A18D8DFE8BA
:1020700002F0070707071706171711131715042291
:102080004B78032B1AD0042B4FF0000317D0304AA3
:10209000029208E00522F3E70622F1E70722EFE7C4
:1020A0002C4B02930023CDE900332B490122184623
:1020B00004F0D0FC6FF0150004B070BD0123488817
:1020C00044F20A06B0423DD00AD844F20306B042B8
:1020D00014D044F20506B04232D098B31F4BE0E76B
:1020E00044F21406B0422FD044F22806B0422DD05C
:1020F00044F20F06B042F1D1032000E00020C5F306
:102100004015120242EA055242EA0332230103F16A
:10211000804303F5E04342EA0042C3F81825230157
:1021200003F1804303F5E0438A79C3F814250020C6
:10213000C3F810050A4B4A79234483F89020BBE783
:102140000120DCE70220DAE70420D8E70520D6E703
:10215000528200003382000018780000768200006E
:1021600000000020F0B50D4687B04FF0FF337148F6
:102170004FF0FF3203F02EFA6E68731EFE2B4FF005
:10218000000309D96C4A0292CDE900336B49012260
:10219000184604F05FFC14E0694C6A4F1A46184672
:1021A00026FA02F313F0010339D0BB5C8BB903921A
:1021B000654A0292CDE9003360490122184604F0D5
:1021C00049FC6FF015045B4803F0E0F9204607B0C6
:1021D000F0BD04EB021E95F811C0DEF81815BCF135
:1021E000000C18BF4FF0010C21F0807141EA0C6126
:1021F000CEF8181502F15101090101306350C0B247
:102200000132082ACCD12A7CA2F108010023062938
:1022100018D8DFE801F01E1720170917150002F182
:10222000510109016350EBE70223454A0128C2F836
:10223000F0356B7C11D993B1444B02930023A3E793
:102240000323F2E70392424A0093CDE901320023CF
:10225000B2E70023E9E70123E7E7082B16D8C2F825
:10226000F4352A684300B2B9EA689A4217D2CDE938
:102270000323384B02930023CDE900332F49012279
:10228000184604F0E7FB6FF00B049CE70393324B16
:10229000029300238EE7928902FB0333E4E7284B85
:1022A000AA68C3F82C262F46C3F830060FCF2B4C54
:1022B00004F164060FC63B683360002626662B686F
:1022C000274693B30FCB04F1780585E80F006566C8
:1022D000A4F8886048B3BFF35B8F57E8003F47E836
:1022E0000062002AF9D1BFF35B8F1D49A56F1D4A1B
:1022F0004FF400400F463146E5FB0071002338469D
:10230000FDF7EEFE0022CDE90001002304F10800F4
:1023100003F096FE14484FF0FF324FF0FF3303F006
:1023200059F900B12066246E4DE70C48FFF788FE8E
:10233000F0E700BF40000020A182000018780000F4
:102340000070004090000020BF820000FE8200006C
:10235000D982000053830000308300000000002079
:102360003F420F0040420F005000002010B50E4BBE
:102370000024C3F80441D3F80421C3F81041D3F872
:1023800010211222C3F804230720FFF7ABF82246DE
:1023900003210720FFF7C2F80448836C13B94030CB
:1023A00003F0F4F8002010BD007000400000002091
:1023B00038B52E4BD3F80421002A49D00022C3F8A7
:1023C0000421D3F804112A4C01219960C3F8002597
:1023D000636E2546BBB3E36FB4F8882033B104F1D4
:1023E00064019847012814D0022827D0B4F8883017
:1023F000B4F884209A4221D90133A4F888301B4BC9
:10240000D3F82C26D3F8341689B202EB4102C3F874
:102410002C26A36F23B9BDE838401548FFF710BE3E
:10242000BFF35B8F55E8003F5A1E45E800210029A5
:10243000F8D1BFF35B8F012BEDDC38BDA36F13B177
:102440000C4805F03EF80C48BDE8384003F09EB853
:10245000D3F810110029F0D0C3F81021D3F81021BF
:1024600001229A601A605A60E7E700BF00700040DE
:10247000000000200800002050000020084B70B52C
:10248000C31A0D4607499B1004465943064840228B
:1024900004F023FB2B4601462046BDE87040184758
:1024A00030030020B76DDBB61876000073B50C4C16
:1024B0000C4A4023041B00930D460B460A49A41006
:1024C00061430646094804F034FB011E05DA304634
:1024D0002B4602B0BDE87040184702B070BD00BF87
:1024E000300300209D6B0000B76DDBB6187600004E
:1024F00010B54FF02003EFF3118483F31288BFF37C
:102500006F8F074A136823F00201DB07116002D4C2
:10251000012004F0A3FC84F31188BFF36F8F10BD7A
:1025200080030020002270B5012104461046FEF70A
:10253000F5FF0F4801F0E0FB0E4B984215D104F077
:1025400080FC26690C49304604F037F900280BDB83
:10255000012535642469084904F11C0004F02DF9B3
:10256000002801DBE564002070BD6FF00400FBE78C
:10257000B12500000000AD0BA879000070B5014640
:102580000C2309484B43C418D4E90E5640330022AB
:102590001844A26304F08EFA2DB132462B4603484C
:1025A000BDE87040184770BD300300201876000069
:1025B00010B1012804D07047034B1B6C5B0701D19D
:1025C000FFF7DCBF704700BF3003002008B54FF0B5
:1025D0002003EFF3118183F31288BFF36F8F124A48
:1025E000136843F002001060DA0708D481F3118801
:1025F000BFF36F8F0120BDE8084001F08DBB4FF0A5
:102600008043D3F80C24D3F80C34DB07EED507480D
:1026100004F050FA81F31188BFF36F8F0020BDE8FA
:102620000840FFF7ABBF00BF80030020700300200D
:102630001FB500220123CDE90223094ACDF800D0BD
:102640006B46CDF804D004F0A2FA002805DB4FF465
:1026500080420023684602F0BDFF05B05DF804FB30
:10266000B56B000010B5074C23782BB94FF4A5705B
:1026700004F000FE01232370BDE81040002001F0AB
:102680004BBB00BFF10400202DE9F0413849BFF3F6
:102690005B8F0746012251E8003F41E800200028F7
:1026A000F9D1BFF35B8F33B9324933484B60CB600C
:1026B0008A6004F095F87B1E012B2BD8012F07D1DF
:1026C0004FF08043D3F81C3403F00303012B21D0D7
:1026D00004F0F4FD0546F8B9284B1B78E3B14FF040
:1026E00080430222C3F808230646DFF894804FF0A7
:1026F0008044D4F81824D4F81834D20316D503F043
:102700000303012B01D0012F10D15DB386F3118893
:10271000BFF36F8FBDE8F0814FF02003EFF3118618
:1027200083F31288BFF36F8F0125DEE7ADB130462A
:10273000FEF77CFED4F81835002BDAD1D4F804214A
:10274000002AD6D0C4F80431D4F804310123C4F8E7
:102750001835C8F88031A360CBE70021212003F0B1
:1027600023FAE7E74FF080430222C3F80423D1E7BE
:102770002C0300201C0300204C0300200309002030
:1027800000E100E010B5044C2046FEF769F9204650
:10279000FFF706FC002010BD9D270000F7B5134E83
:1027A0008DF807000446032502F004FC01220DF118
:1027B0000701002002F0C8FB074602F005FC27B124
:1027C00001233370204603B0F0BD3378002BF9D0DD
:1027D000013D08D004F072FD0028E5D1002142201F
:1027E00003F0E2F9E0E73570ECE700BFF204002007
:1027F00008B5074804F043FD38B10648FFF7D0FBA1
:102800000448FEF72DF9002008BD6FF01200FBE729
:1028100040760000192800000A2838B5074D044604
:1028200004D1AB680D215B6828469847AB68034824
:102830005B68E1B29847204638BD00BF4076000093
:1028400030B54068057B01F01F04B2F5001F85B06C
:1028500044EA451405D1204601F046FD002005B0AC
:1028600030BD0025B2F5800FCDE9025514D1B3F18A
:10287000007F0CBF042305238DF808300023194680
:1028800002AA204601F064FB214B984239D1012174
:10289000204601F0DDFCE1E7B3F1C06F26D0B3F1D3
:1028A000007F14BF012302238DF80830836823FAC8
:1028B00001F111F00101E1D1B2F1A07FDED104F00C
:1028C0001F03620903F5E0731ED14FF0A04252F8D6
:1028D0002330DB07D2D40DF107052946204601F04D
:1028E00063FC0C4B984203D00395C7E70323DBE757
:1028F000284601F0A7FC064B9842F5D06FF00B007C
:10290000ADE76FF01500AAE751F82330FFDE00BFF6
:102910000000AD0B0400AD0B10B501F083FC0446C4
:1029200068B901F057FC084B98420AD10748214684
:1029300001F034FC224605210620FEF7EFFD0020C1
:1029400010BD6FF00400FBE70000AD0B5129000043
:10295000430970B507D10B4B596821B101250C68AB
:10296000094E854001B970BD8A682A4002D04B6883
:10297000304698471CB1236821461C46F2E723469F
:10298000FAE700BF840300202C7600002DE9FF4108
:1029900047683B7B01F01F0545EA43150E46284674
:1029A0000DF10701144601F0FFFB14F4403F80468F
:1029B0000DD1284601F0BEFC3D4B984503D19DF852
:1029C000070001F039FC002004B0BDE8F0810023CD
:1029D000194602AA2846CDE9023301F0B9FA344B70
:1029E000984214D1804503D19DF8070001F024FCE2
:1029F000A3034ED540F206332340B3F5837F1AD0AC
:102A00000DD8062B18D005D8B3B1022B33D06FF0F8
:102A10001500D9E7B3F5807FF9D101230CE040F22E
:102A20000222934229D0B3F5407F28D0B3F5007F2E
:102A3000EDD1022300E007238DF8083084F48033C1
:102A4000C3F30043E0068DF8093054BFC4F34013CC
:102A5000032321038DF80A3013D57A680123B3408C
:102A6000C2F80835002202A9284601F021FB104BCC
:102A70009842A8D0CBE70423DEE70523DCE7032355
:102A8000DAE7620341BF01237A68B340C2F80C352C
:102A9000E8E7E3064FF0000354BFC4F340140324F7
:102AA0001A4602A928468DF8084001F051FADEE7DF
:102AB0000000AD0B08B543681B68D3F80805D3F8D0
:102AC0000C1502F05FF9034B984214BF6FF00F0032
:102AD000002008BD0000AD0B1FB511F001034268D6
:102AE00004690ED1C1F3420001280DD0022814D090
:102AF0000C4A0D490093CDE901321846012204F039
:102B0000B1F86FF0150006E013684FF0CC72C3F80F
:102B100024250020616204B010BD13684FF0CD621F
:102B2000F5E700BFCF8300004078000030B50446D1
:102B300087B0002201210320FEF7F0FC63689D6945
:102B400005AA0021284604F030F900281FDB059B68
:102B50002A681979186800F087F9002817DB60687F
:102B600023690D4A00F1080101F0A6FF0B4B9842C2
:102B70000FD0236803930A4B029300231846CDE934
:102B800000330849012204F06DF86FF00F0007B020
:102B900030BD0020FBE700BFA92B00000000AD0BFB
:102BA000E1830000407800000378012B08D0022B5D
:102BB00008D04BB9054B0B6201F1100002F0E6BCE6
:102BC000034BF8E7034BF6E7034BF4E70000AD0BCC
:102BD0000100AE0B0200AE0B0100AD0B2DE9F04F72
:102BE00091B006460C4691460793D0F804800769D9
:102BF0004FF0FF324FF0FF33384602F0EBFC07F1A5
:102C0000100A00220023504602F0E4FC404601F086
:102C1000B3FFDFF8ECB000254D4501D300244FE0B1
:102C2000237A099313F0080166D112220DF12E00C8
:102C3000089104F09AFC099B606807990C9003F0D6
:102C4000010220688DF82D1013F0020F08998DF8FD
:102C50002C200E9015D109F1FF33AB4202D9237D10
:102C60005B0710D5002A47D120220BA9404601F06E
:102C7000AFFF584509D0234B98421FD16FF00F0486
:102C80001EE00A46F1E74022EFE700234FF48042BE
:102C9000504602F09FFC0346E0B11B4B0293002319
:102CA0001846CDE9003319490395012203F0DAFFF4
:102CB000404601F071FF3046FFF7FCFE6FF0040460
:102CC000404601F069FF384602F060FC204611B032
:102CD000BDE8F08F3A6A5A4504F10C040AD0CDE9F8
:102CE00003250B4A09490090CDE90102012203F0B6
:102CF000B9FFE3E701358FE76FF08504E0E700BF38
:102D00000000AD0B0B00AD0B01840000407800000B
:102D10002B8400002DE9F0434668336885B00546F2
:102D200093B902680392324A32490093CDE90132E5
:102D30001846012203F0CDFF6FF012043368F3B997
:102D4000204605B0BDE8F0830024F7E72A4B029344
:102D500000230390CDE9003326490122184603F0F1
:102D6000B8FFEDE72A680392244A22490090CDE992
:102D70000102012203F0ADFF6FF01204E0E7002C26
:102D8000FAD1A0460127746854F8380004EBC8094A
:102D900004F075FA03460028E4D054F8380099F896
:102DA0000410B9F80630D0F810C0D0F80890DCF85C
:102DB0000040DA0754BF43F4B01383F4D01323F474
:102DC000801207FA01FEDB074CBF44EA0E0424EA36
:102DD0000E04CCF80040D9F800309847044600288B
:102DE000B4D1336808F101084345CCD8A8E700BF47
:102DF0005D8400004878000088840000A7840000FB
:102E0000F0B545682B6885B02BBB02680392134A66
:102E100013490093CDE901321846012203F0B5FFB2
:102E20006FF0120005B0F0BD6F682601B85904F0CC
:102E300026FA034648B9BA59094912680392094A61
:102E40000090CDE901020122E8E701342B689C42A1
:102E5000EADB0020E6E70024F8E700BF5D8400001D
:102E600050780000CA840000F0B54C4D00EB8101A1
:102E7000814201D10020F0BD046804F07F03C4F357
:102E800043267F2B4FEA144408BF4FF0FF33192C21
:102E900073D8DFE804F00D131A1D72727272727229
:102EA00072204A7272727272727272724D606366CE
:102EB000C2F80C355F1C57D10430D9E7C2F814357D
:102EC0005C1CF9D04FF0000C0EE0C2F80835F1E7B9
:102ED000C2F81035F4E7C2F80835002EF0D15C1CBA
:102EE000EAD04FF0000C0626D0F800E00EF40054B3
:102EF000002C0EBF674601274FF0000C03F01F04A3
:102F00005B0944D1A40004F1A044CEF3C11ED4F85F
:102F100000372B4043EA8E0343EA062343EA0C03BF
:102F200043EA4703C4F80037C6E7C2F80C35D4E7D4
:102F3000C2F860355F1C0468BED0C4F380349CB90D
:102F40005F091DD101244FF0A0479C40C7F80C45F4
:102F50004FF0010CC8E7C2F86435EBE7C2F86835FA
:102F6000E8E7C2F86C35E5E75C090CD101244FF0C5
:102F7000A0479C40C7F80845EAE76FF085007AE76C
:102F8000C4F80C45FFDE0023C3F80835FAE704F562
:102F9000E074002353F82430F4E700BFF0F8FCFF9E
:102FA00002480021C2E90001002070470024F4001B
:102FB000F0B545680669AF6B87B0044605AA0021E5
:102FC000384603F0F2FE00284ADB059B3A6819797F
:102FD0001868FFF749FF002842DB00222F681146DE
:102FE0004FF0A04C4FF0010E02F5AC7357F82300E0
:102FF00000280BDB430937D1DCF80435C34013F05C
:10300000010318BF0EFA02F30B43D9B20132042AAE
:10301000EAD102360023012000FA03F20A420CBF73
:10302000012200220133D203042B26F8022FF3D110
:1030300000231A4605F10801284601F0F9FA0C4B65
:1030400098420FD0236803930A4B0293002318463B
:10305000CDE900330849012203F0BAFE6FF00F00FA
:1030600007B0F0BD0020FBE70023D3F80435FFDEF6
:103070000000AD0BE183000080780000F0B585B062
:103080000329BDF8287045680469164607F0010752
:103090000BD95A4B039102930023CDE900335849D1
:1030A0000122184603F094FE1CE0AA7F012A04BF07
:1030B0005B087608002B6FD09E423CD9D4F800E024
:1030C000207B0122764502FA01FC1ED030EA0C007A
:1030D0000CD04C4B02930023CDE9003348491846ED
:1030E00003F076FE6FF0150005B0F0BD3246B2F584
:1030F000004F18D2266060732E6895F81EE0C6F85F
:103100000C05C6F804E5C6F80825627BD3409BB2DF
:103110000FB943F4004304EB41018B80237B43EA66
:103120000C0323732EE0013008284FEA5202DED14F
:10313000354B0396AFE74B0001F5AC7223448FB1DA
:1031400047F6FF7098802B6853F82230002B11DB74
:103150005A094AD1012202FA03F34FF0A042C2F801
:103160000C3507E04FF6FF7098802B6853F822303B
:10317000002B22DA012606FA01F3217B21EA030162
:10318000217321B3A37B43BB0023012205F1280156
:10319000284601F079FA1EE04A0001F5AC7022449D
:1031A00027B193802B6853F82030E1E74FF40043B8
:1031B00093802B6853F82030C8E75A0919D10122AF
:1031C00002FA03F34FF0A042C2F80835D2E72846CE
:1031D00001F098FAA673002086E70023A37328461F
:1031E00003F0FCFE0028FAD0CEE70023C3F80C352C
:1031F000FFDE0023C3F80835FAE700BFF3840000C0
:1032000080780000088500001D850000074BD3F87A
:10321000082142B10020C3F80801D3F80821D3F8EF
:1032200018350B7070474FF0FF307047002000409A
:10323000024BD3F88004C3F880047047002000409C
:1032400010B54B79012B1CD18B79032B19D1CB797C
:10325000BBB90A7912B1022A13D10E220B68B3F559
:10326000164F5ED02BD8B3F5165F5CD014D8B3F5EB
:10327000966F5AD008D8B3F5967F59D0B3F5167F1C
:1032800059D06FF085004BE0B3F5166F56D0B3F50B
:10329000965FF6D1334B39E0B3F5E14F51D007D803
:1032A000B3F5615F4FD0B3F5964FEAD12E4B2DE0C9
:1032B00047F61224A342E4D14FF4000326E0B3F50D
:1032C000613F43D011D8B3F5963F41D008D84DF6B1
:1032D000C024A3423ED0B3F5614FD2D1234B15E0B9
:1032E000B3F5E13FCDD1224B10E0B3F5612F34D0DF
:1032F00007D8204CA34232D0B3F5E12FC1D11E4BE9
:1033000004E01E4CA342BCD14FF0805304691C481A
:10331000C0F82435C0F86C2503C984E803000020F8
:1033200010BD184BF2E7184BF0E74FF49E23EDE782
:103330004FF4A033EAE74FF41C33E7E74FF41D23C3
:10334000E4E7124BE2E74FF46C13DFE7104BDDE7E5
:10335000104BDBE74FF46503D8E70F4BD6E74FF090
:103360008063D3E700B0130000A04E0000F0EB0034
:1033700000E0D70190D0030000705F0740420F00CB
:103380000020004000509D000050270000F0750014
:1033900000B0AF0300903A0100D0BE0EF8B50E4663
:1033A00003F08CFF1A4D78BB64240127BFF35B8FB9
:1033B00055E8003F002B03D145E80072002AF7D101
:1033C000BFF35B8F07D021200021013C02F0ECFB12
:1033D00014F0FF04EAD10F4C0023C4F81C31D4F8D8
:1033E0001C310123A360C4F81C654FF47A76D4F82D
:1033F0001C3123B9012003F022FD013EF7D1012346
:10340000E36000232B60F8BD01232B60E3E700BFDE
:10341000A003002000200040F7B5134C4368076963
:103420000021C4F800151E68054601AA304603F0C5
:10343000BCFC002815DB019B326819791868FFF77E
:1034400013FD00280DDB39462846FFF7F9FE40B989
:103450000423C4F80035C4F80801D4F80831012366
:10346000236003B0F0BD00BF0020004070B5012311
:1034700083400E4ABFF35B8FDC4352E8001F01EA32
:10348000040542E80056002EF7D1BFF35B8F4FF4DE
:10349000803282400648C0F80823BFF35F8FBFF335
:1034A0006F8F0B4214BF0120002070BDA8030020C5
:1034B0000010014070B40E49D1E90034D01AC3188D
:1034C00044F1000422F07F46C1E90034A6F5001360
:1034D000B3F5400F09D2074B1B681A0A1B069C194B
:1034E000054B42F10005C3E9004570BC02F0B2BCD7
:1034F00098010020AC030020A001002011B3BFF30D
:103500005B8F0123104A834052E800CF4CEA030C42
:1035100042E800C10029F7D1BFF35B8F0B4A4FF49B
:1035200080338340C2F80433094BBFF35B8F1B68C1
:10353000BFF35B8FC340DB0742BF064B4FF4003243
:10354000C3F80021704700BFA8030020001001400D
:10355000A403002000E100E00D4B1868010A0006FA
:10356000BFF35F8F0B4BD3F80435181841F10001FE
:10357000B3F5801F0AD2084BD3E90023904271EBC8
:10358000030303D210F1807041F10001704700BFC6
:10359000AC03002000100140A00100202DE9F04FF5
:1035A00085B016461F469DF840A00446FFF75EFF13
:1035B0000190FFF7D1FFB04271EB070354D23E4BAD
:1035C000301A67EB0101984271F100014FD23B4B79
:1035D00003EB0413D3E902239F4208BF96425ED057
:1035E00037494FF4803804F1500508FA04F8AD006B
:1035F000C1F848832046ADB203F002FC26F07F4BB1
:1036000005F1804504F5A87305F58835DC464FF0D3
:1036100003090293029A2CF07F4341F82230C1F84B
:103620004483D1F80435274A6FF00200C01A604481
:1036300020F07F40904232D9286868B1D1F8043533
:103640000393A3EB0B0020F07F40B0F5000F26D9C9
:10365000204603F0D5FB039BBAF1000F07D109EB1D
:10366000030C09F10109D5E7BAF1000F09D06FF099
:10367000150520460199FFF741FF284605B0BDE832
:10368000F08F0123104ABFF35B8FA34052E8000F75
:10369000184342E800010029F8D1BFF35B8F0749C6
:1036A0000E98230101EB0412C8500F9B5360C2E92E
:1036B00002670025DDE700BF0100800088010020CF
:1036C00000100140FDFF7F00A40300207FB51C4CCB
:1036D0001C4BC4F80833C4F848331B4B00254FF08B
:1036E000FF304FF0FF31C4F80855C3E902014FF431
:1036F0008033C4F80433154B02264FF40032012105
:10370000C4F804631120C3F880212A46FDF706FFA0
:103710001120FDF7E7FE0E4A0123A360236013602A
:103720000C4B0D4A0093CDE9015500232846FFF7C5
:1037300035FF3046FEF7A8FF284604B070BD00BF35
:103740000010014003000F008801002000E100E0AC
:10375000A8030020B5340000FFFF7F002DE9F743E8
:103760002F4CD4F8043399070BD5D4F8043143B166
:103770002C4A0023C4F80431D4F80431136801330F
:103780001360D4F80433DA032AD5BFF35B8F264BDA
:1037900053E8002F22F0010143E800100028F7D180
:1037A000BFF35B8FD30702D4D4F84031C3B10025F7
:1037B000C4F84051D4F84031FFF7CEFE4FF020035B
:1037C000EFF3118283F31288BFF36F8F174BD3E9A6
:1037D0000267B042B94106D282F31188BFF36F8FFE
:1037E00003B0BDE8F0834FF0FF384FF0FF39C3E975
:1037F0000289D3E900101D604FF48033C4F84833C8
:10380000C4F84051D4F8403182F31188BFF36F8F70
:103810000029E5D0009032463B4628468847DFE73E
:1038200000100140AC030020A40300208801002008
:103830001FB5431C23D0012823DD134A134B9042AC
:10384000D4BF04461C46FFF787FE114B0F49D3E94E
:103850000023801AB0F5000F28BF002404448C42D6
:1038600028BF0C46A2180B4900914FF00000CDE98B
:10387000010043F10003FFF791FE04B010BD034CBB
:10388000E1E70124DFE700BFFEFF7F00FFFF7F00CD
:1038900098010020B534000008B5FFF75DFE024B2B
:1038A0001B68C01A08BD00BF980100207FB50BAB94
:1038B00005930393054B02930023CDE900330122C6
:1038C0001846FDF703FB07B05DF804FB6B850000AD
:1038D0001FB5FDF787FA0024064B02932046CDE979
:1038E0000044054923460122FFF7E0FF2046FEF78A
:1038F0002DFA00BF6B850000307800004FF0704358
:1039000093F8E02F062A09D1D3F8E83FC3F3031355
:10391000033B042B02D8024AD05C7047002070475A
:1039200097850000024AD2F80034002BFBD0704784
:1039300000E0014010B503F073FA40B14FF080533E
:103940008E4AD3F82433C3F30423C2F84035FFF77B
:10395000D5FF10B18A4B8B4A5A6703F061FA48B120
:103960004FF080534FF08042D3F84432C3F34233D8
:10397000C2F83C35FFF7C2FF30B1834AD2F8FC30C1
:1039800023F08073C2F8FC3003F04AFA40B14FF0E4
:1039900080430022C3F80C21C3F81021C3F8382556
:1039A000FFF7ACFF20B14FF080430322C3F8A025FE
:1039B000FFF7A4FF60B1754B0522C3F81026012262
:1039C000C3F888260022C3F818263F22C3F814261D
:1039D0004FF08053D3F83021511C09BF4FF0704392
:1039E000D3F8343193F8E02FD3F8E83F08BFC3F39E
:1039F0000313062A4DD1033B042B03D8644AD35C3E
:103A0000002B46D04FF08052624BD2F80414C3F81A
:103A10002015D2F80814C3F82415D2F80C14C3F8F2
:103A20002815D2F81014C3F82C15D2F81414C3F8C2
:103A30003015D2F81814C3F83415D2F81C14C3F892
:103A40004015D2F82014C3F84415D2F82414C3F852
:103A50004815D2F82814C3F84C15D2F82C14C3F822
:103A60005015D2F83014C3F85415D2F83414C3F8F2
:103A70006015D2F83814C3F86415D2F83C14C3F8B2
:103A80006815D2F84014C3F86C15D2F84424C3F872
:103A9000702503F0C5F948B14FF080534FF08042D4
:103AA000D3F8583203F04F03C2F8E43E03F0B8F9FC
:103AB00048B14FF08043D3F80024D20744BF6FF0E1
:103AC0000102C3F800244FF08053D3F83021062AB6
:103AD00026D1D3F83431033B042B02D82E4AD35CD1
:103AE00063B12E4AD2F83C3743F48063C2F83C37C6
:103AF0004FF08053D3F83031062B11D14FF0805363
:103B0000D3F83431033B042B02D8254AD35C3BB1B4
:103B10004FF01023D3F808224FF08043C3F8582504
:103B20004FF01023D3F80022002A03DBD3F804322D
:103B3000002B22DA1B4901234FF01020C1F8043575
:103B40001524FFF7EFFEC0F80042FFF7EBFEC0F8C8
:103B50000442FFF7E7FE0023C1F80435FFF7E2FE59
:103B6000BFF34F8F0849104BCA6802F4E062134359
:103B7000CB60BFF34F8F00BFFDE710BD00300140A9
:103B800000C007400DF0ADBA00ED00E0005000406D
:103B90009285000000C000408D85000000100040AC
:103BA0008885000000E001400400FA0530B5046893
:103BB000CCB1BFF35B8FB4FA84F3C3F11F03DBB264
:103BC00001229A4024EA020250E8005FA54204D193
:103BD00040E8002CBCF1000FF6D1BFF35B8FE6D1BB
:103BE00002480B7030BD0248FCE700BF0000AD0B7F
:103BF0000200AD0B10B50368CB40DB0714D40123E2
:103C00008B400268BFF35B8F43EA020150E8004F2C
:103C1000944204D140E8001CBCF1000FF6D1BFF380
:103C20005B8FEED1014810BD0148FCE70000AD0BF1
:103C30000400AD0BF7B5044618B1012823D003B03A
:103C4000F0BD4FF080430222C3F80823C3F80401FB
:103C5000D3F804210122DA60064601238DF80730EB
:103C600042F210754FF08047D4B1012CE7D1D7F85C
:103C70000C3403F48033AEBB83B3012003F0DFF8D0
:103C8000013DF4D12AE04FF080430022C3F808033D
:103C9000C3F80021D3F8002158600DF10706DCE7D6
:103CA000D7F8183403F480333EB9002BC7D0012075
:103CB00003F0C5F8013DF3D1C1E7D7F8182402F0AD
:103CC00003023260002BBAD09DF80700012803D10F
:103CD00003F0B5F8013DC7D1012CB0D1054B00224E
:103CE0005A71ACE7D7F80C2402F001023270002BB5
:103CF000EAD1F3E7B0030020044B1A7922B901227C
:103D000018609A800248704702487047B00300204C
:103D10000000AD0B0C00AD0B38B510B1012843D03D
:103D200038BD4FF08042D2F81814D2F81834C803C6
:103D30002ED503F00303012B04D013B10020FFF7AD
:103D400079FF00234FF08042C2F818350023C2F8F3
:103D50000431D2F804310223C2F80433184AD2F8ED
:103D6000FC0040F08073C2F8FC30164B1C6844F035
:103D7000010119605D685968491BB1F50A5FFAD302
:103D80001C604FF08043C2F8FC0001229A60C7E734
:103D9000D2F81434D907D4D5D2F81C349B07CDD42B
:103DA0000223C2F80433BBE74FF080430022C3F87C
:103DB0000021D3F80021C3F804031860B0E700BF66
:103DC00000ED00E0001000E010B54FF08043D3F8A4
:103DD00000216AB10022C3F80021D3F8002101229A
:103DE000C3F80823114B587910B95A711B689847CA
:103DF0004FF08043D3F8042172B10022C3F80421AC
:103E0000D3F80421D3F81824D3F81824920704D146
:103E10000122C3F818259A6010BD0222C3F80823B6
:103E2000024BBDE810401B6801201847B00300207A
:103E3000C0B2034B083033F81000C0F34010704795
:103E4000F8000020C0B2034B083033F81000C0F374
:103E500040007047F8000020C0B2034B083033F830
:103E60001000400B704700BFF800002070B500F153
:103E700008030C4C34F81330DA0505460E4607D516
:103E8000C3F3432304EBC30254F83330526898471A
:103E9000A3682BB1E26831462846BDE87040184758
:103EA00070BD00BFF800002010B4C0B2114A083045
:103EB00032F81030D9051BD5C3F3432123F4F8534E
:103EC00022F8103002F10E04002034F8023F13F4FF
:103ED000807F03D0C3F34323994209D001302028C7
:103EE000F3D1002342F83130034810BCFFF782BE03
:103EF00010BC7047F80000204C010020F0B50146CE
:103F0000104A114C00200125064602F14043A3F55A
:103F1000C2439B0805FA03F3194204D0176817B18E
:103F20001660176818430432A242EED1074BD3F84B
:103F30007C2132B10022C3F87C21D3F87C3140F0DF
:103F40000040F0BD00610040206100400060004082
:103F5000F0B5044685B017461D4601B3FFF772FF62
:103F600018B12046FFF764FF08BB0023CDE90033FA
:103F70008DF80E308DF80F300DF10F020B462046F4
:103F80000DF10E0102F076FFE3B24449083331F837
:103F9000132022F0020242F0010221F8132057B34D
:103FA00020463E787A68FFF74DFF10B1C2B13C4819
:103FB00023E0E3B2DFF8E4C008333CF8131021F04B
:103FC0002001C904C90C2CF813104AB1032EEED8F5
:103FD0007A6817789EB9334B07F5A27743F82760C4
:103FE000E3B22E49083331F8132022F01C0242EAD2
:103FF000860221F813203DBB2B4805B0F0BDBA0066
:1040000002F1804202F5C04241EA4731D2F8100580
:1040100020F00300C2F81005D2F8100520F4473054
:1040200020F44070C2F81005D2F810E5200200F428
:10403000F85040EA0E0040EA064041F020012CF81A
:104040001310C2F81005CBE7D5E900672046FFF74B
:104050002BFF002ED0D0114DD5E90023964201D17F
:104060009F4219D011480DF10F01FFF79FFD0E4B34
:104070009842C2D19DF80F2045F83260E4B205EBBA
:10408000C20308345F6035F8143043EA422343F436
:10409000807325F81430AFE70022EDE7F800002028
:1040A0000400AD0B006000400000AD0B4C0100208F
:1040B000F0B5044685B0164629B3FFF7C3FE20B914
:1040C0002046FFF7B5FE00285FD1E5B2304F083536
:1040D00037F8153013F01C0F02D04B78012B54D059
:1040E00001238DF80F300023CDE900134A1C8B1CEF
:1040F00020460DF10F0102F0BDFE37F8153043F0F8
:10410000030327F8153016B9224805B0F0BD204644
:10411000FFF798FEC8B3E5B21D4F96F800C008350A
:10412000614637F81500890020F0200001F1804138
:10413000C00401F5C041C00C27F815000023C1F8E8
:1041400010357278002ADFD0D1F81035B67823F414
:10415000981323F4F853C1F8103512042302D1F850
:1041600010E502F4403203F4F8531343320543EAF6
:104170000E0302F4801240EA4C30134340F020005A
:1041800027F81500C1F81035BEE70348BDE700BFAA
:10419000F80000200000AD0B0400AD0B014BC3E99B
:1041A00002017047F800002008B50246FFF740FE04
:1041B00040B1D2B2044B0548083233F812305B0BE1
:1041C0000B7008BD0248FCE7F80000200000AD0BB2
:1041D0000400AD0B70B50F4C94F85860BEB90E4D8D
:1041E0004022314604F1100003F0BFF9C5F87C61AC
:1041F0000620D5F87C31FDF775F94FF00043C5F87E
:1042000004330648012384F85830636570BD0448C0
:10421000FCE700BFF8000020006000400000AD0B8C
:104220000500AD0B034B93F85800003818BF012070
:10423000704700BFF800002001460148FFF7DABCD4
:104240004801002001460148FFF7B0BC48010020AA
:1042500037B50446FFF7ECFD08B32046FFF7F2FD43
:104260000546E0B92046FFF7F7FD03B29B0003F1D6
:10427000804202F5C24203F1804303F5C04315605A
:104280001268D3F8102542F00102C3F8102521B1BD
:10429000134A01238340C2F8043303B030BDE3B2B4
:1042A000104A083332F81330C3F38203042B12D0C0
:1042B000052B12D001A8019402F0D2FD019BD0F889
:1042C0001015D94001F001010231204603B0BDE8CC
:1042D000304002F018BE0321F7E70221F5E700BFE6
:1042E00000600040F800002008B50246FFF7A0FD7E
:1042F000C0B11046FFF7A6FDA0B91046FFF7ACFD10
:104300000B4A01238340C2F8083303B29B0003F138
:10431000804303F5C043D3F8102522F00302C3F80D
:10432000102508BDBDE808400021104602F0EBBD95
:104330000060004073B5C5B2174E0835044636F824
:104340001530DB0726D5FFF7CFFF2046FFF770FDBE
:1043500040B12046FFF780FD104B00F5A27000220F
:1043600043F820202046FFF79FFD002301A826F8F0
:104370001530019402F074FD019B00EB8300084BA3
:10438000D0F80027134043F00203C0F80037054877
:1043900002B070BD0448FBE7F80000200060004058
:1043A000F0F8FCFF0000AD0B0400AD0B2DE9F34766
:1043B000534BD3F80403C0B240F00040FFF79EFD1A
:1043C000051E1ADA4FF0A043DFF83881D3F8202514
:1043D0000092C3F820250127009CA4B94FF00040AB
:1043E000FFF78CFD4FF0A042D2F820350093C2F8C1
:1043F0002035002BEFD125F000450124002D66D19A
:1044000002B0BDE8F08794FAA4F4B4FA84F4E008AA
:1044100004F1080304F0070238F813901DF8003087
:10442000019407FA02F223EA02030DF8003001A812
:1044300002F016FD019B03F5E0734FEA990150F875
:104440002360C9F3820A4B07D146C6F3014623D540
:1044500020465146FFF70AFD01A8019402F000FD35
:10446000019B03F5E073F6B250F82330C3F3014328
:104470009E4207D10021204602F045FD31462046EC
:1044800002F041FD01A8019402F0EAFC019B07FA49
:1044900003F3C0F820359FE7022E0CD103212046FC
:1044A00002F031FD0AF00503012BEBD1494620460D
:1044B000FFF7DCFCE6E70221204602F024FDBAF11A
:1044C000030FF3D0032EDDD1BAF1020FEDE795FA19
:1044D000A5F3B3FA83F304FA03F29B0003F18043DC
:1044E00003F5C04325EA0205D3F81005D3F81015EB
:1044F000C0F30420C1F30141FFF7B8FC7EE700BF21
:1045000000600040F800002070B505790A4C0C23CB
:104510006B43E618E35833B90068022102F034FD1A
:1045200008B1012333720C2303FB0544207A0238BF
:1045300018BF012070BD00BFB80300202DE9F04175
:104540000B7FA3B34C7F0F8B91F815C091F816E049
:104550008A7E91F81B8003685CB9D1E90065D1E9D6
:104560000241C3F86065C3F86455C3F86845C3F8F1
:104570006C1542EA0822C3F80CC5C3F804E5C3F879
:104580000875C3F8102500680023C0F81031D0F872
:104590001021C0F80831D0F80821C0F80C31D0F84B
:1045A0000C31BDE8F04140F30730FCF79BBFDFF86A
:1045B0007CC00C1F01F1100501F10C07012654F815
:1045C000043F5A1C20D095F800E003F01F024FEA88
:1045D0005318BEF1000F1CD0B8F1000F03D0002318
:1045E000C3F80835FFDE4FF0A04E06FA02F2CEF80F
:1045F00008259B0003F1A043D3F8002702EA0C0230
:1046000042F00302C3F80027BC4205F10105D6D1F0
:1046100098E7B8F1000F06D14FF0A04E06FA02F26B
:10462000CEF80C25E5E7CEF80CE5DBE7F0F8FCFF6B
:104630002DE9F04190F80480104C0C2707FB08F797
:1046400004EB070C05469CF808E0BEF1000F13D1FF
:10465000E251CCF8043021B10B7F8CF80A30FFF71F
:104660006DFF2A6806480123C2F800350C2202FBC0
:1046700008442372BDE8F0810248FBE7B80300203C
:104680000000AD0B0500AD0B70B40C460179266837
:104690001D461B4B01EB410103EB81010368C3F88D
:1046A0002065A688C3F82465A668C3F82865E6686F
:1046B000C3F82C6503682668C3F84065A688C3F86C
:1046C0004465A668C3F84865E468C3F84C450468C7
:1046D00002F0010303EB5202C4F81425EA070DD4DB
:1046E00015F0020203D0002B14BF08220422046834
:1046F000C4F80022EAB270BC02F014BC1022F6E743
:10470000B803002038B5036805790022C3F80022F9
:104710000368012204465A6051B12046FFF7F4FEB7
:104720000028FAD0054B0C2202FB053301221A7235
:104730002046BDE83840FFF7E7BE00BFB8030020C1
:1047400070B51D4A0C68B2FBF4F304FB13258DBB56
:1047500094422FD85C1E1C402CD1B3F5007F29D881
:1047600002684D79D2F80465097926F0030601F054
:1047700003013143C2F80415D2F8081593FAA3F3E4
:1047800021F0030105F00305B3FA83F32943C2F8CE
:104790000815C2F810350068402300F58072D45027
:1047A000D1580433582BFAD140F30730FCF79AFE66
:1047B000024870BD0248FCE70024F4000000AD0B85
:1047C0000400AD0BF8B506790D4C0C25754367193F
:1047D00097F808C0BCF1000F10D1625161B18B682D
:1047E0007B60FFF7ADFF0C2303FB0644054BC21AA9
:1047F000534253412372F8BD0248F4E70248FAE7F6
:10480000C40300200000AD0B0500AD0B03680122BE
:104810001A600279034B0C2101FB023302221A7247
:10482000704700BFC40300202DE9F041002540235C
:104830002946012003F1804202F5014214682CB19F
:10484000116012689A0800FA02F215430433582BDB
:10485000F0D10E4B0E4FD3F80463402406F47C16BF
:104860004FF00108A30808FA03F31E4208D02B42B8
:1048700006D03B6823B104F58070796880B2984710
:104880000434502CEED1BDE8F08100BF0080004020
:10489000C4030020CB7B10B433B9D1E900420368D4
:1048A000C3F80845C3F80C2503688A68C3F82425B3
:1048B00003793C225343054AD3582BB1006810BCFE
:1048C00040F30730FCF70EBE10BC7047D003002049
:1048D00013B53B4B01930023C0F80431D0F80421F9
:1048E000C0F82431D0F82421C0F81C31D0F81C21A4
:1048F000C0F80831D0F80821C0F800324B6381F8C5
:104900002F300123036291F82D209A4218BF836053
:104910004B6B8A6A934204460ED24A6AD35CC0F853
:104920001C350B6803B340F286238B608B682548E7
:10493000C4F8043302B010BD91F82C3013B1012338
:10494000C361EEE70B6A13F0400F4FF0010316BF8F
:10495000C361436181F82D30E3E7204602F084FB18
:1049600028B1019B013B0193019B002BF5DC91F8E1
:104970002F305BB91348019B002BDBDC0023C4F80C
:10498000003505231048C4F80035D3E7D4F8C43403
:10499000C4F8C4348BB10D4A0B4813F0010F18BF93
:1049A000104613F0020F02F1010218BF104613F077
:1049B000040F074B18BF1846DDE70348DBE700BFCD
:1049C000A08601000000AD0B0100AD0B0000AE0B96
:1049D0000200AE0B13B5334B01930023C0F8043132
:1049E000D0F80421C0F82431D0F82421C0F81C31BB
:1049F000D0F81C21C0F80831D0F808214B6381F8A9
:104A00002F308B6A012B044617D10B6A5B0614D436
:104A10000223C4F800320123236291F82D20022AD8
:104A200018BF23600B688BB140F286238B608B68C4
:104A30001D48C4F8043302B010BD0123E9E7204645
:104A400002F012FB28B1019B013B0193019B002B5B
:104A5000F5DC91F82F305BB91348019B002BEADCA1
:104A60000023C4F8003505231048C4F80035E2E7F8
:104A7000D4F8C434C4F8C4348BB10D4A0B4813F0D5
:104A8000010F18BF104613F0020F02F1010218BF08
:104A9000104613F0040F074B18BF1846DDE7034814
:104AA000DBE700BFA08601000000AD0B0100AD0BED
:104AB0000000AE0B0200AE0BF8B506792A4D4FF0A0
:104AC0003C0C0CFB06FC05EB0C0494F82E70002F3C
:104AD0003DD1A76045F80C20636084F82D7084F800
:104AE000317084F8307051B34B7B84F838308F7B51
:104AF00084F839700FBB0A6802F01F03520928D1ED
:104B00009B0003F1A043DFF864C0D3F8004740F2F4
:104B10000C6704EA0C043C43C3F800474C6804F0FB
:104B20001F0364091AD19B0003F1A043D3F80027A7
:104B300002EA0C023A43C3F80027FFF7ABFE3C231E
:104B400003FB06550A48012385F82E30F8BD0948B5
:104B5000FCE703F5E07357F82330FFDE03F5E0735D
:104B600052F82330F9E700BFD0030020F0F8FCFF33
:104B70000000AD0B0500AD0B036802790521C3F8F9
:104B80000015044B3C2101FB0233022283F82E2046
:104B9000704700BFD003002003680B4A0179C3F8B7
:104BA0000823D3F8002222F00302C3F800220022D7
:104BB000C3F80025054B3C2000FB0133012183F89D
:104BC0002E1083F83020704786420400D003002066
:104BD0002DE9F047314F0479D0F800903C2303FBD6
:104BE00004730D4693F82D30012B944604D10B78B5
:104BF000012B06D12A4811E0022B02D10B78012BA0
:104C0000F8D13C26274BC9F8083306FB047696F802
:104C100030302BB1B3682448C9F80433BDE8F087BD
:104C20008CF00403C3F3800386F83030C6F820C04C
:104C3000A846B8E80F0006F10C0EAEE80F00D8F851
:104C40000030CEF800306B68B362EB6873626B784B
:104C5000C9F888352B78C4EB041A012B07EB8A0AB4
:104C600017D09BB9CCF3401C3C2303FB0473514683
:104C7000484683F82CC0FFF72BFE3C235C433A19CF
:104C80003B59002BCAD182F83030C7E74FF0010CF6
:104C9000EAE751464846FFF79DFEEEE7D0030020C5
:104CA0000500AD0B864204000B00AD0BF0B5324C95
:104CB000324887B0214602F0D7F9002859D194F83C
:104CC0002F70FFB9227B931E012B1BD8606AA3694A
:104CD000984217D1E36963626369A362236A274834
:104CE00084F82D70C3F34013032A84F82C3004D1C8
:104CF00007B0BDE8F040FFF7EBBD07B0BDE8F040FE
:104D0000FFF768BE1E4E0FCE01AD0FC533682B6096
:104D100047B31A4AD2F8C434C2F8C43413F00201BB
:104D200006D001238DF80030002384F8303007E0EE
:104D300013F0040209D002238DF8003084F83010FB
:104D4000D4E900316846984713E013F0010305D019
:104D500003238DF8003084F83020F1E704228DF829
:104D60000020E2E7236A8DF800705B0784F830705A
:104D7000E6D507B0F0BD00BFD003002000300040F2
:104D8000DC030020F7B5064602F010FA084602F0F0
:104D90000DFA01A8019602F0FFF9019B2E4D00EBE0
:104DA00083000C46D0F80037019440F20D612B408F
:104DB0000B43C0F8003701A802F0EEF9019B00EBAD
:104DC00083000127D0F800372B400B43C0F8003791
:104DD000042002F034F8092501A8019402F0DCF95E
:104DE000019AD0F81035D340DB0715D401A80196FD
:104DF00002F0D2F9019B07FA03F3C0F80C35042046
:104E000002F01DF8304602F0D1F9013D042002F015
:104E100016F815F0FF05DFD101A8019402F0BCF9E6
:104E2000019A01239340C0F80C35042002F007F8E2
:104E3000204602F0BBF9042002F001F801A8019419
:104E400002F0AAF9019AD0F810350448D34003F0D3
:104E50000103C01A03B0F0BDF0F8FCFF0100AD0B78
:104E600008B5124BA8220021184602F07EFB03224F
:104E700002610F4942610F4A8161C2614FF4806251
:104E80000262002282624262C26201660A4941668F
:104E900010218166094902670346C266426711F81C
:104EA000010D98540132102AF9D108BD0C040020DC
:104EB000D085000003050020F3040020E9850000F0
:104EC0002DE9F84FDFF87C80182606FB008E00FBEA
:104ED00006664644DEF82440DEF828C07368A44520
:104EE00007468946154603EB040022D8DEF820B0B9
:104EF000ABEB040A0AF1FF339A4203D802F027FB16
:104F00002C440FE063449A4219D852462C4402F0D4
:104F10001EFBB4EB0B0405D07068224609EB0A01B6
:104F200002F015FB182303FB078301205C62BDE838
:104F3000F88F0CF1FF3CACEB040C9445DED2002062
:104F4000F5E700BF0C040020F8B5144B182700FB50
:104F500007751D4407FB00330E46DB6A012B144620
:104F60000AD0022B14D023B9284602F02CF984422F
:104F700008D900242046F8BD284602F024F98442CE
:104F800028BF044622463146284602F025F9F1E7BB
:104F90002846BDE8F84002F03CB900BF0C040020F0
:104FA000034B182202FB00339A6A586A801A704732
:104FB0000C04002003484FF0FF324FF0FF3300F0A5
:104FC0002FBA00BF70010020014800F0A3BA00BF53
:104FD0007001002070B5054600B304783CB1104C58
:104FE000104EB44205D30E4CB4420BD300242046DD
:104FF00070BD204602F043F910B12368AB42F6D0F1
:105000001434EEE7204602F03AF928B12168284628
:10501000FBF7D0F90028EAD01434E5E70446E6E7C8
:1050200018760000B87600002DE9F041054686B0FC
:105030000E464FF02003EFF3118883F31288BFF37D
:105040006F8F02F0A3FA234B23491F580395042DB9
:1050500096BF224B224B53F825300024CDE904346F
:10506000204B0094CDE9014301222346204602F063
:1050700011F96EB1F369C3F308034BB11A4B16492A
:105080000094CDE9014301222346204602F002F9B3
:105090002FB1384602F018F908B1037803B9134864
:1050A000134B02930023CDE90370CDE9003318467A
:1050B0000122094902F0EEF831462846FEF708FCC5
:1050C00088F31188BFF36F8F384606B0BDE8F04112
:1050D000FCF792BE0800000078780000A07B00007A
:1050E000EA8500000086000028860000F8850000A0
:1050F00049860000104B70B553F82040013053F83A
:105100002060A64200D870BDD4E9003595B153B1F6
:105110002846984738B10028B8BF4042EB68FF28BE
:10512000A8BFFF201870EA68537843F0010353705A
:105130000834E6E79847FBE7B47B000008B50A4B64
:10514000012203201A70FFF7D5FF00F0A9FF042009
:10515000FFF7D0FF00F008F9FBF78CF9034A137B47
:1051600023F00103137308BD030900202802002067
:1051700008B50348034A0021121A02F09BF808BD43
:10518000880100200809002070B5002386B00122A4
:10519000CDE90423174E184D01930F22CDE90232B9
:1051A0001649142303FB005506EBC0164FF4A072FA
:1051B0000446134B009502FB0011304600F096F8B0
:1051C000737B2C7423F0040373730E4BEE60013475
:1051D00003EBC4236B600C4BBFF35B8F53E8001FE2
:1051E000013143E80012002AF8D1BFF35B8F06B00B
:1051F00070BD00BFA8010020B804002008110020E5
:10520000CD72000008090020B404002080B5002001
:10521000A6B0FFF76FFF2E4B83F308882D4D2E4E5F
:105220006B692E4F43F400736B610024E02385F813
:105230002230EC772C766C76AC7685F820406B6A61
:1052400043F4E0236B6285F82340FCF737FDFCF75D
:10525000D9F84FF0FF33AB62EB62FCF769FEFCF765
:10526000E1FDFBF7ABFD40F20113ADF8243006ABD6
:10527000B360CDE91E44219402F000F80120FFF74D
:1052800039FF0220164DFFF735FF00F003FC154BE8
:1052900075610593012314490094CDE903434FF44C
:1052A00080623B46CDE90144284600F01FF86A7B46
:1052B000064622F0040228466A7302F055F820469A
:1052C000FFF762FF3A4631462846FCF7D1F900BFA6
:1052D0000811002000ED00E0B80400203D5100005E
:1052E00028020020AB860000481200202DE9F04380
:1052F00085B0984600F158030732C0E91633109B79
:10530000037322F0070504230026437301EB05090C
:105310000F9B83730F46C0E9066649468660C673D5
:105320000446FCF7CFF907300E9B20F00700A0667B
:10533000C4E9187502930D9B0193A9EB00090C9B1E
:1053400000934A46434639462046FCF775F9054B1B
:1053500066659B6803B1DB6EE366484605B0BDE851
:10536000F08300BFB80400202DE9F043294C2A4DFA
:1053700087B02646AE4204F12C040FD300F05AFB4E
:10538000244CDFF898904FF4004640F2E737AC42E7
:1053900020D307B0BDE8F04300F060BB54F8043CF4
:1053A000059354F80C3C049354F8103C039354F8C0
:1053B000143C029354F8183C019354F81C3C00939D
:1053C00054E9092354E90B01FFF790FF54F82C3CF2
:1053D0005E65CEE7636A5A1C0DD023EAE3730021B1
:1053E0003846C3FB060151EAC333D4F8008004D128
:1053F000404600F0CFFA2C34C9E74FF47A7200230C
:10540000FAF76EFE02460B4608F11800494600F016
:10541000ABFCF0E7F0770000F0770000F1730000DC
:105420002DE9F341044617461E464FF02003EFF3E3
:10543000118883F31288BFF36F8FC368334A7BB13F
:1054400080689168884219D057EA060318D188F31A
:105450001188BFF36F8F6FF00F0002B0BDE8F081CD
:10546000916891F90E1021610133E3609368A360A4
:1054700088F31188BFF36F8F0020EEE72169F2E710
:1054800091F90E1090F90E309942A8BF19466FF0AD
:105490007E029142B8BF11468B422EDD01F022FF01
:1054A0000546CDE900761A482246414600F0FCF94F
:1054B0000028E1D04FF02003EFF3118683F3128828
:1054C000BFF36F8FA068D0B1236821699C420AD0D6
:1054D0004BB193F90E309942A8BF19466FF07E0385
:1054E0009942B8BF194601F0FDFE40B10848314667
:1054F00000F03EFA6FF00A00AFE70025D1E7002D7B
:10550000F4D186F31188BFF36F8FF3E7B80400205E
:105510000409002038B5836804466BB3194A9268C1
:1055200093422CD1C368012B03D9013BC3600020F7
:1055300038BD4FF02003EFF3118583F31288BFF3DA
:105540006F8F0169806801F0CDFE204601F06BFF8E
:10555000A06058B190F90E2022610022826701F00C
:1055600003FF0948294600F003FAE0E7E06085F30D
:105570001188BFF36F8FDAE76FF01500D8E74FF0AF
:10558000FF30D5E7B80400200409002038B50446F0
:105590004FF02003EFF3118583F31288BFF36F8F71
:1055A00001F041FF48B10022826701F0DDFE29468B
:1055B0000748BDE8384000F0DBB9D4E902329A422E
:1055C00018BF0133A36085F31188BFF36F8F38BD17
:1055D0000409002013B54FF02004EFF3118184F388
:1055E0001288BFF36F8F846844B1013C846081F3FB
:1055F0001188BFF36F8F002002B010BD52EA030480
:1056000006D181F31188BFF36F8F6FF00F00F3E7BE
:10561000CDE900230246024800F046F9ECE700BF5E
:1056200004090020C3897F2B12D80A4B1B6863B181
:10563000094B90F90E201B689A4209DB437BDB067D
:1056400006D1064BC31A18BF012303F001007047AF
:105650000023FAE7E0040020DC040020A801002079
:10566000044BC01A044BC0105843044B01221A5477
:10567000704700BFA8020020ABAAAAAA0409002014
:1056800070B50E4B0E4C1E7C06EB460304EBC304B8
:105690000546204601F0F9FE0A4B002228469A559D
:1056A000FFF7C0FF48B1084B08491A68013A204685
:1056B000D317BDE8704000F057BB70BDB8040020A0
:1056C000A802002004090020E00400206156000028
:1056D00038B50D4D2B4653F8184F9C4200D004B9F5
:1056E000EC68AB6838B95A7BD20604D1A26912B90A
:1056F000DA897F2A05D89C4202D02046FFF7C0FFF6
:1057000023466B6138BD00BFB804002070B590F926
:105710000D20437B002A014604DA03F07F03437324
:1057200001F0E8FD4B7B154A63F07F0310464B7395
:1057300050F8183FD469834208BF002323B9C1E958
:1057400000042160D1610CE091F90E5093F90E60D4
:10575000B5420ED0AE420CDD5868C1E900300160A0
:1057600059609068431A5842BDE870405841FFF7AD
:10577000AFBF9C42E3D01B68E0E700BFB804002045
:1057800070B490F90D30427B002B29DBD30627D172
:1057900083692BBB134962F07F0242730A4652F8B9
:1057A000184F944218BF2346CC6923B9C0E900249E
:1057B0002060C8610CE090F90E5093F90E60B5427C
:1057C0000AD0AE4208DD5A68C0E900321060586065
:1057D00070BC0020FFF77CBFA342E7D01B68E4E762
:1057E00070BC7047B804002008B590F90D20437BC9
:1057F000002A014604DA03F07F03437301F07AFDC7
:10580000044B9868431A58425841BDE80840FFF7D6
:105810005FBF00BFB804002070B515461C460646A1
:1058200001F07AFDB4F1FF3F08BFB5F1FF3F08D0AA
:105830002A46234606F118000249BDE8704000F0F0
:1058400093BA70BDF173000038B54FF02003EFF349
:10585000118583F31288BFF36F8F104B104A9C6839
:105860001068A04206D1FFF70BFF85F31188BFF344
:105870006F8F38BD00211B7C11600A4AD35C002B5E
:10588000F3D02046FFF7CEFE0028EED0637BDB0688
:1058900002D12046FFF73AFF2046E4E7B804002093
:1058A000D80400200409002070B50C480C4D86680F
:1058B0002E600C461146DDE904234FF02006EFF37D
:1058C000118586F31288BFF36F8F8068FFF7A4FFFE
:1058D0002046BDE87040FBF759BE00BFB804002069
:1058E000D8040020F8B504464FF02003EFF31186EA
:1058F00083F31288BFF36F8F437BDA0649B219D165
:105900008569BDB903F07F03437301F0F3FC437B6A
:10591000164A817363F07F034373134653F8180FDD
:10592000984218BF0546D0695DB9C4E900300460EB
:10593000D46111E0A173002086F31188BFF36F8F4B
:10594000F8BD95F90E70B9420BD08F4209DD6B6836
:10595000C4E900531C606C600120FFF7B9FE012010
:10596000EAE7A842E1D02D68DEE700BFB8040020D6
:1059700049B9EFF3058030B9054B5A699B689A42E3
:1059800001D0FBF703BE81F31188BFF36F8F70471F
:10599000B804002010B54FF02002EFF3118482F319
:1059A0001288BFF36F8F427B510704D484F31188B0
:1059B000BFF36F8F10BD22F004024273FFF7E0FEC9
:1059C00021460248BDE81040FFF7D2BF050900207C
:1059D00070B50446183001F058FD4FF02003EFF386
:1059E000118683F31288BFF36F8F94F90D20637BC8
:1059F000002A05DA03F07F036373204601F07AFC86
:105A00000B4D637BA86843F010036373031B58427C
:105A10005841FFF75DFE86F31188BFF36F8FAB68C7
:105A2000A34203D1BDE8704001F025BD70BD00BFA9
:105A3000B80400204FF02003EFF3118183F31288A4
:105A4000BFF36F8F044B9A68D37B013BD37381F311
:105A50001188BFF36F8F7047B804002010B54FF066
:105A60002003EFF3118483F31288BFF36F8F084B89
:105A70009A68D37B0133D3730020FFF729FE84F3A8
:105A80001188BFF36F8FBDE8104001F0F4BC00BF78
:105A9000B8040020024B03F11802C3E90622704744
:105AA000B8040020F8B54FF02003EFF3118583F31D
:105AB0001288BFF36F8F19498868437B03F07F0317
:105AC000437301F017FC8B685A7B084662F07F0233
:105AD0005A7350F8182FCC69824208BF002222B9AD
